{"abi":[{"type":"function","name":"createPolicy","inputs":[{"name":"admin","type":"address","internalType":"address"},{"name":"policyType","type":"uint8","internalType":"enum TIP403Registry.PolicyType"},{"name":"accounts","type":"address[]","internalType":"address[]"}],"outputs":[{"name":"newPolicyId","type":"uint64","internalType":"uint64"}],"stateMutability":"nonpayable"},{"type":"function","name":"createPolicy","inputs":[{"name":"admin","type":"address","internalType":"address"},{"name":"policyType","type":"uint8","internalType":"enum TIP403Registry.PolicyType"}],"outputs":[{"name":"newPolicyId","type":"uint64","internalType":"uint64"}],"stateMutability":"nonpayable"},{"type":"function","name":"isAuthorized","inputs":[{"name":"policyId","type":"uint64","internalType":"uint64"},{"name":"user","type":"address","internalType":"address"}],"outputs":[{"name":"","type":"bool","internalType":"bool"}],"stateMutability":"view"},{"type":"function","name":"modifyPolicyBlacklist","inputs":[{"name":"policyId","type":"uint64","internalType":"uint64"},{"name":"account","type":"address","internalType":"address"},{"name":"restricted","type":"bool","internalType":"bool"}],"outputs":[],"stateMutability":"nonpayable"},{"type":"function","name":"modifyPolicyWhitelist","inputs":[{"name":"policyId","type":"uint64","internalType":"uint64"},{"name":"account","type":"address","internalType":"address"},{"name":"allowed","type":"bool","internalType":"bool"}],"outputs":[],"stateMutability":"nonpayable"},{"type":"function","name":"policyData","inputs":[{"name":"","type":"uint64","internalType":"uint64"}],"outputs":[{"name":"policyType","type":"uint8","internalType":"enum TIP403Registry.PolicyType"},{"name":"admin","type":"address","internalType":"address"}],"stateMutability":"view"},{"type":"function","name":"policyIdCounter","inputs":[],"outputs":[{"name":"","type":"uint64","internalType":"uint64"}],"stateMutability":"view"},{"type":"function","name":"setPolicyAdmin","inputs":[{"name":"policyId","type":"uint64","internalType":"uint64"},{"name":"admin","type":"address","internalType":"address"}],"outputs":[],"stateMutability":"nonpayable"},{"type":"event","name":"BlacklistUpdated","inputs":[{"name":"policyId","type":"uint64","indexed":true,"internalType":"uint64"},{"name":"updater","type":"address","indexed":true,"internalType":"address"},{"name":"account","type":"address","indexed":true,"internalType":"address"},{"name":"restricted","type":"bool","indexed":false,"internalType":"bool"}],"anonymous":false},{"type":"event","name":"PolicyAdminUpdated","inputs":[{"name":"policyId","type":"uint64","indexed":true,"internalType":"uint64"},{"name":"updater","type":"address","indexed":true,"internalType":"address"},{"name":"admin","type":"address","indexed":true,"internalType":"address"}],"anonymous":false},{"type":"event","name":"PolicyCreated","inputs":[{"name":"policyId","type":"uint64","indexed":true,"internalType":"uint64"},{"name":"updater","type":"address","indexed":true,"internalType":"address"},{"name":"policyType","type":"uint8","indexed":false,"internalType":"enum TIP403Registry.PolicyType"}],"anonymous":false},{"type":"event","name":"WhitelistUpdated","inputs":[{"name":"policyId","type":"uint64","indexed":true,"internalType":"uint64"},{"name":"updater","type":"address","indexed":true,"internalType":"address"},{"name":"account","type":"address","indexed":true,"internalType":"address"},{"name":"allowed","type":"bool","indexed":false,"internalType":"bool"}],"anonymous":false},{"type":"error","name":"ArrayLengthMismatch","inputs":[]},{"type":"error","name":"IncompatiblePolicyType","inputs":[]},{"type":"error","name":"PolicyDoesNotExist","inputs":[]},{"type":"error","name":"Unauthorized","inputs":[]}],"bytecode":{"object":"0x60806040525f80546001600160401b03191660021790553480156020575f5ffd5b50610cce8061002e5f395ff3fe608060405234801561000f575f5ffd5b5060043610610085575f3560e01c806371ec67a31161005857806371ec67a314610130578063c62b27d414610143578063c9ee405614610156578063ca5d55f614610169575f5ffd5b806325f7d376146100895780633cc32f9c1461009e57806350214329146100cd57806355a1179e1461010d575b5f5ffd5b61009c610097366004610a19565b61017c565b005b5f546100b0906001600160401b031681565b6040516001600160401b0390911681526020015b60405180910390f35b6100ff6100db366004610a4a565b60016020525f908152604090205460ff81169061010090046001600160a01b031682565b6040516100c4929190610a9e565b61012061011b366004610a19565b61022c565b60405190151581526020016100c4565b61009c61013e366004610ac4565b610344565b61009c610151366004610ac4565b610480565b6100b0610164366004610b2e565b6105b3565b6100b0610177366004610c18565b610892565b6001600160401b0382165f9081526001602052604090205461010090046001600160a01b031633146101c0576040516282b42960e81b815260040160405180910390fd5b6001600160401b0382165f818152600160205260408082208054610100600160a81b0319166101006001600160a01b0387169081029190911790915590519092339290917f98925cfb1bc09c5b43dd0dd56d3d95aa04fb3300927580cc588c3f5dd58c15e19190a45050565b5f6002836001600160401b03161015610252575060016001600160401b0383161461033e565b6001600160401b0383165f9081526001602081905260408083208151808301909252805491929091839160ff9091169081111561029157610291610a6a565b60018111156102a2576102a2610a6a565b8152905461010090046001600160a01b031660209091015290505f815160018111156102d0576102d0610a6a565b1461030a576001600160401b0384165f9081526002602090815260408083206001600160a01b038716845290915290205460ff161561033a565b6001600160401b0384165f9081526002602090815260408083206001600160a01b038716845290915290205460ff165b9150505b92915050565b6001600160401b0383165f9081526001602081905260408083208151808301909252805491929091839160ff9091169081111561038357610383610a6a565b600181111561039457610394610a6a565b815290546001600160a01b036101009091048116602092830152908201519192501633146103d4576040516282b42960e81b815260040160405180910390fd5b5f815160018111156103e8576103e8610a6a565b146104065760405163f1011ef560e01b815260040160405180910390fd5b6001600160401b0384165f8181526002602090815260408083206001600160a01b03881680855290835292819020805460ff191687151590811790915590519081529192339290917fb15f514df899cf1b4ef0dc78f930c10d98883756fa3a1a8853a98132e7f4c5a691015b60405180910390a450505050565b6001600160401b0383165f9081526001602081905260408083208151808301909252805491929091839160ff909116908111156104bf576104bf610a6a565b60018111156104d0576104d0610a6a565b815290546001600160a01b03610100909104811660209283015290820151919250163314610510576040516282b42960e81b815260040160405180910390fd5b60018151600181111561052557610525610a6a565b146105435760405163f1011ef560e01b815260040160405180910390fd5b6001600160401b0384165f8181526002602090815260408083206001600160a01b03881680855290835292819020805460ff191687151590811790915590519081529192339290917f94c23f8f319426f2da63b46b024acbc55fe44a5c59dc4c00d11b792515083c549101610472565b5f80546001600160401b031681806105ca83610c40565b91906101000a8154816001600160401b0302191690836001600160401b031602179055509050604051806040016040528084600181111561060d5761060d610a6a565b81526001600160a01b0386166020918201526001600160401b0383165f908152600191829052604090208251815491929091839160ff1990911690838181111561065957610659610a6a565b02179055506020919091015181546001600160a01b0390911661010002610100600160a81b03199091161790555f5b82518110156107ff576001600160401b0382165f9081526002602052604081208451600192908690859081106106c0576106c0610c76565b6020908102919091018101516001600160a01b031682528101919091526040015f908120805460ff19169215159290921790915584600181111561070657610706610a6a565b036107835782818151811061071d5761071d610c76565b60200260200101516001600160a01b0316336001600160a01b0316836001600160401b03167fb15f514df899cf1b4ef0dc78f930c10d98883756fa3a1a8853a98132e7f4c5a66001604051610776911515815260200190565b60405180910390a46107f7565b82818151811061079557610795610c76565b60200260200101516001600160a01b0316336001600160a01b0316836001600160401b03167f94c23f8f319426f2da63b46b024acbc55fe44a5c59dc4c00d11b792515083c5460016040516107ee911515815260200190565b60405180910390a45b600101610688565b50336001600160a01b0316816001600160401b03167f718d87917f0c4cfd1263707ef0e77c656ed8d8bfaca06152bdb0b8094142ec27856040516108439190610c8a565b60405180910390a36040516001600160a01b0385169033906001600160401b038416907f98925cfb1bc09c5b43dd0dd56d3d95aa04fb3300927580cc588c3f5dd58c15e1905f90a49392505050565b5f60405180604001604052808360018111156108b0576108b0610a6a565b81526001600160a01b0385166020909101525f8054600191906001600160401b031681806108dd83610c40565b82546101009290920a6001600160401b038181021990931691831602179091558116825260208201929092526040015f20825181549294509091829060ff19166001838181111561093057610930610a6a565b02179055506020919091015181546001600160a01b0390911661010002610100600160a81b031990911617905560405133906001600160401b038316907f718d87917f0c4cfd1263707ef0e77c656ed8d8bfaca06152bdb0b8094142ec279061099a908690610c8a565b60405180910390a36040516001600160a01b0384169033906001600160401b038416907f98925cfb1bc09c5b43dd0dd56d3d95aa04fb3300927580cc588c3f5dd58c15e1905f90a492915050565b80356001600160401b03811681146109fe575f5ffd5b919050565b80356001600160a01b03811681146109fe575f5ffd5b5f5f60408385031215610a2a575f5ffd5b610a33836109e8565b9150610a4160208401610a03565b90509250929050565b5f60208284031215610a5a575f5ffd5b610a63826109e8565b9392505050565b634e487b7160e01b5f52602160045260245ffd5b60028110610a9a57634e487b7160e01b5f52602160045260245ffd5b9052565b60408101610aac8285610a7e565b6001600160a01b039290921660209190910152919050565b5f5f5f60608486031215610ad6575f5ffd5b610adf846109e8565b9250610aed60208501610a03565b915060408401358015158114610b01575f5ffd5b809150509250925092565b8035600281106109fe575f5ffd5b634e487b7160e01b5f52604160045260245ffd5b5f5f5f60608486031215610b40575f5ffd5b610b4984610a03565b9250610b5760208501610b0c565b915060408401356001600160401b03811115610b71575f5ffd5b8401601f81018613610b81575f5ffd5b80356001600160401b03811115610b9a57610b9a610b1a565b8060051b604051601f19603f83011681018181106001600160401b0382111715610bc657610bc6610b1a565b604052918252602081840181019290810189841115610be3575f5ffd5b6020850194505b83851015610c0957610bfb85610a03565b815260209485019401610bea565b50809450505050509250925092565b5f5f60408385031215610c29575f5ffd5b610c3283610a03565b9150610a4160208401610b0c565b5f6001600160401b0382166001600160401b038103610c6d57634e487b7160e01b5f52601160045260245ffd5b60010192915050565b634e487b7160e01b5f52603260045260245ffd5b6020810161033e8284610a7e56fea2646970667358221220a7bb1e493f1fdda4c4128d3040ae9aa635c4db4de4fb48cc1b663cae88eeca1964736f6c634300081e0033","linkReferences":{}},"methodIdentifiers":{"createPolicy(address,uint8)":"ca5d55f6","createPolicy(address,uint8,address[])":"c9ee4056","isAuthorized(uint64,address)":"55a1179e","modifyPolicyBlacklist(uint64,address,bool)":"c62b27d4","modifyPolicyWhitelist(uint64,address,bool)":"71ec67a3","policyData(uint64)":"50214329","policyIdCounter()":"3cc32f9c","setPolicyAdmin(uint64,address)":"25f7d376"},"id":28}