{"abi":[{"type":"constructor","inputs":[],"stateMutability":"nonpayable"},{"type":"function","name":"M","inputs":[],"outputs":[{"name":"","type":"uint256","internalType":"uint256"}],"stateMutability":"view"},{"type":"function","name":"MIN_LIQUIDITY","inputs":[],"outputs":[{"name":"","type":"uint256","internalType":"uint256"}],"stateMutability":"view"},{"type":"function","name":"N","inputs":[],"outputs":[{"name":"","type":"uint256","internalType":"uint256"}],"stateMutability":"view"},{"type":"function","name":"SCALE","inputs":[],"outputs":[{"name":"","type":"uint256","internalType":"uint256"}],"stateMutability":"view"},{"type":"function","name":"burn","inputs":[{"name":"userToken","type":"address","internalType":"address"},{"name":"validatorToken","type":"address","internalType":"address"},{"name":"liquidity","type":"uint256","internalType":"uint256"},{"name":"to","type":"address","internalType":"address"}],"outputs":[{"name":"amountUserToken","type":"uint256","internalType":"uint256"},{"name":"amountValidatorToken","type":"uint256","internalType":"uint256"}],"stateMutability":"nonpayable"},{"type":"function","name":"getPool","inputs":[{"name":"userToken","type":"address","internalType":"address"},{"name":"validatorToken","type":"address","internalType":"address"}],"outputs":[{"name":"","type":"tuple","internalType":"struct FeeAMM.Pool","components":[{"name":"reserveUserToken","type":"uint128","internalType":"uint128"},{"name":"reserveValidatorToken","type":"uint128","internalType":"uint128"}]}],"stateMutability":"view"},{"type":"function","name":"getPoolId","inputs":[{"name":"userToken","type":"address","internalType":"address"},{"name":"validatorToken","type":"address","internalType":"address"}],"outputs":[{"name":"","type":"bytes32","internalType":"bytes32"}],"stateMutability":"pure"},{"type":"function","name":"liquidityBalances","inputs":[{"name":"","type":"bytes32","internalType":"bytes32"},{"name":"","type":"address","internalType":"address"}],"outputs":[{"name":"","type":"uint256","internalType":"uint256"}],"stateMutability":"view"},{"type":"function","name":"mint","inputs":[{"name":"userToken","type":"address","internalType":"address"},{"name":"validatorToken","type":"address","internalType":"address"},{"name":"amountUserToken","type":"uint256","internalType":"uint256"},{"name":"amountValidatorToken","type":"uint256","internalType":"uint256"},{"name":"to","type":"address","internalType":"address"}],"outputs":[{"name":"liquidity","type":"uint256","internalType":"uint256"}],"stateMutability":"nonpayable"},{"type":"function","name":"pools","inputs":[{"name":"","type":"bytes32","internalType":"bytes32"}],"outputs":[{"name":"reserveUserToken","type":"uint128","internalType":"uint128"},{"name":"reserveValidatorToken","type":"uint128","internalType":"uint128"}],"stateMutability":"view"},{"type":"function","name":"rebalanceSwap","inputs":[{"name":"userToken","type":"address","internalType":"address"},{"name":"validatorToken","type":"address","internalType":"address"},{"name":"amountOut","type":"uint256","internalType":"uint256"},{"name":"to","type":"address","internalType":"address"}],"outputs":[{"name":"amountIn","type":"uint256","internalType":"uint256"}],"stateMutability":"nonpayable"},{"type":"function","name":"totalSupply","inputs":[{"name":"","type":"bytes32","internalType":"bytes32"}],"outputs":[{"name":"","type":"uint256","internalType":"uint256"}],"stateMutability":"view"},{"type":"event","name":"Burn","inputs":[{"name":"sender","type":"address","indexed":true,"internalType":"address"},{"name":"userToken","type":"address","indexed":true,"internalType":"address"},{"name":"validatorToken","type":"address","indexed":true,"internalType":"address"},{"name":"amountUserToken","type":"uint256","indexed":false,"internalType":"uint256"},{"name":"amountValidatorToken","type":"uint256","indexed":false,"internalType":"uint256"},{"name":"liquidity","type":"uint256","indexed":false,"internalType":"uint256"},{"name":"to","type":"address","indexed":false,"internalType":"address"}],"anonymous":false},{"type":"event","name":"FeeSwap","inputs":[{"name":"userToken","type":"address","indexed":true,"internalType":"address"},{"name":"validatorToken","type":"address","indexed":true,"internalType":"address"},{"name":"amountIn","type":"uint256","indexed":false,"internalType":"uint256"},{"name":"amountOut","type":"uint256","indexed":false,"internalType":"uint256"}],"anonymous":false},{"type":"event","name":"Mint","inputs":[{"name":"sender","type":"address","indexed":true,"internalType":"address"},{"name":"userToken","type":"address","indexed":true,"internalType":"address"},{"name":"validatorToken","type":"address","indexed":true,"internalType":"address"},{"name":"amountUserToken","type":"uint256","indexed":false,"internalType":"uint256"},{"name":"amountValidatorToken","type":"uint256","indexed":false,"internalType":"uint256"},{"name":"liquidity","type":"uint256","indexed":false,"internalType":"uint256"}],"anonymous":false},{"type":"event","name":"RebalanceSwap","inputs":[{"name":"userToken","type":"address","indexed":true,"internalType":"address"},{"name":"validatorToken","type":"address","indexed":true,"internalType":"address"},{"name":"swapper","type":"address","indexed":true,"internalType":"address"},{"name":"amountIn","type":"uint256","indexed":false,"internalType":"uint256"},{"name":"amountOut","type":"uint256","indexed":false,"internalType":"uint256"}],"anonymous":false}],"bytecode":{"object":"0x6080604052348015600e575f5ffd5b50610efe8061001c5f395ff3fe608060405234801561000f575f5ffd5b50600436106100b1575f3560e01c8063b5217bb41161006e578063b5217bb414610164578063b524abcf146101b7578063c9e525df146101d6578063eced5526146101df578063fa28d692146101e8578063fa291e53146101fb575f5ffd5b80631bd94ac7146100b557806321b77d63146100db5780632ef61c21146100e45780634fb5bf7f146100f7578063531aa03e14610121578063693f917e1461015b575b5f5ffd5b6100c86100c3366004610cf5565b610223565b6040519081526020015b60405180910390f35b6100c86103e881565b6100c86100f2366004610d3f565b610430565b6100c8610105366004610d70565b600360209081525f928352604080842090915290825290205481565b61013461012f366004610d3f565b61047a565b6040805182516001600160801b0390811682526020938401511692810192909252016100d2565b6100c86126f281565b610197610172366004610d91565b5f602081905290815260409020546001600160801b0380821691600160801b90041682565b604080516001600160801b039384168152929091166020830152016100d2565b6100c86101c5366004610d91565b60026020525f908152604090205481565b6100c861270181565b6100c861271081565b6100c86101f6366004610da8565b6104d2565b61020e610209366004610cf5565b6108f4565b604080519283526020830191909152016100d2565b5f5f61022f8686610430565b905061271061024061270186610e0f565b61024a9190610e26565b610255906001610e45565b5f8281526020819052604090208054919350908390829060109061028a908490600160801b90046001600160801b0316610e58565b92506101000a8154816001600160801b0302191690836001600160801b0316021790555084815f015f8282829054906101000a90046001600160801b03166102d29190610e77565b82546001600160801b039182166101009390930a92830291909202199091161790555060405163fbd6948f60e01b8152336004820152306024820152604481018490526001600160a01b0387169063fbd6948f906064016020604051808303815f875af1158015610345573d5f5f3e3d5ffd5b505050506040513d601f19601f820116820180604052508101906103699190610e96565b5060405163a9059cbb60e01b81526001600160a01b0385811660048301526024820187905288169063a9059cbb906044016020604051808303815f875af11580156103b6573d5f5f3e3d5ffd5b505050506040513d601f19601f820116820180604052508101906103da9190610e96565b50604080518481526020810187905233916001600160a01b0389811692908b16917f1e9bc167ac8bc86f20f6d5c4c24338e554a9ae0f92faa67d1e2f59fe4a89c97f910160405180910390a45050949350505050565b6040516bffffffffffffffffffffffff19606084811b8216602084015283901b1660348201525f906048016040516020818303038152906040528051906020012090505b92915050565b604080518082019091525f80825260208201525f6104988484610430565b5f90815260208181526040918290208251808401909352546001600160801b038082168452600160801b9091041690820152949350505050565b5f5f6104de8787610430565b5f81815260208181526040808320600290925290912054815492935090916001600160801b031615801561052157508154600160801b90046001600160801b0316155b156105e3576103e86002610535888a610e45565b61053f9190610e26565b116105915760405162461bcd60e51b815260206004820152601d60248201527f494e53554646494349454e545f4c49515549444954595f4d494e54454400000060448201526064015b60405180910390fd5b6103e860026105a0888a610e45565b6105aa9190610e26565b6105b49190610eb5565b93506103e860025f8581526020019081526020015f205f8282546105d89190610e45565b909155506106789050565b81545f906001600160801b03166105fb575f1961061a565b82546001600160801b0316610610838a610e0f565b61061a9190610e26565b83549091505f90600160801b90046001600160801b031661063c575f19610662565b8354600160801b90046001600160801b0316610658848a610e0f565b6106629190610e26565b90508082106106715780610673565b815b955050505b5f84116106c75760405162461bcd60e51b815260206004820152601d60248201527f494e53554646494349454e545f4c49515549444954595f4d494e5445440000006044820152606401610588565b60405163fbd6948f60e01b8152336004820152306024820152604481018890526001600160a01b038a169063fbd6948f906064016020604051808303815f875af1158015610717573d5f5f3e3d5ffd5b505050506040513d601f19601f8201168201806040525081019061073b9190610e96565b5060405163fbd6948f60e01b8152336004820152306024820152604481018790526001600160a01b0389169063fbd6948f906064016020604051808303815f875af115801561078c573d5f5f3e3d5ffd5b505050506040513d601f19601f820116820180604052508101906107b09190610e96565b508154879083905f906107cd9084906001600160801b0316610e58565b92506101000a8154816001600160801b0302191690836001600160801b0316021790555085825f0160108282829054906101000a90046001600160801b03166108169190610e58565b92506101000a8154816001600160801b0302191690836001600160801b031602179055508360025f8581526020019081526020015f205f82825461085a9190610e45565b90915550505f8381526003602090815260408083206001600160a01b038916845290915281208054869290610890908490610e45565b909155505060408051888152602081018890529081018590526001600160a01b03808a1691908b169033907feca801b067fae3d181506c21fb55d44a644d16cdb863595643131a7e105b5f019060600160405180910390a450505095945050505050565b5f5f5f6109018787610430565b5f8181526020818152604080832060038352818420338552909252909120549192509086111561096c5760405162461bcd60e51b8152602060048201526016602482015275494e53554646494349454e545f4c495155494449545960501b6044820152606401610588565b610977818388610b99565b5f8481526003602090815260408083203384529091528120805493975091955088926109a4908490610eb5565b90915550505f82815260026020526040812080548892906109c6908490610eb5565b90915550508054849082905f906109e79084906001600160801b0316610e77565b92506101000a8154816001600160801b0302191690836001600160801b0316021790555082815f0160108282829054906101000a90046001600160801b0316610a309190610e77565b82546001600160801b039182166101009390930a92830291909202199091161790555060405163a9059cbb60e01b81526001600160a01b0386811660048301526024820186905289169063a9059cbb906044016020604051808303815f875af1158015610a9f573d5f5f3e3d5ffd5b505050506040513d601f19601f82011682018060405250810190610ac39190610e96565b5060405163a9059cbb60e01b81526001600160a01b0386811660048301526024820185905288169063a9059cbb906044016020604051808303815f875af1158015610b10573d5f5f3e3d5ffd5b505050506040513d601f19601f82011682018060405250810190610b349190610e96565b5060408051858152602081018590528082018890526001600160a01b0387811660608301529151898316928b169133917fa1306df62797fd30333308e15e2db0aed324580be7f22c124614a44310ec7fcc9181900360800190a4505094509492505050565b5f8281526002602052604081205484548291908190610bc1906001600160801b031686610e0f565b610bcb9190610e26565b86549093508190610bec90600160801b90046001600160801b031686610e0f565b610bf69190610e26565b91505f610c0286610c73565b905080831115610c695760405162461bcd60e51b815260206004820152602c60248201527f5749544844524157414c5f455843454544535f415641494c41424c455f56414c60448201526b24a220aa27a92faa27a5a2a760a11b6064820152608401610588565b5050935093915050565b5f81815260016020526040812054819061271090610c9d906126f2906001600160801b0316610e0f565b610ca79190610e26565b5f84815260208190526040902054909150610cd3908290600160801b90046001600160801b0316610eb5565b9392505050565b80356001600160a01b0381168114610cf0575f5ffd5b919050565b5f5f5f5f60808587031215610d08575f5ffd5b610d1185610cda565b9350610d1f60208601610cda565b925060408501359150610d3460608601610cda565b905092959194509250565b5f5f60408385031215610d50575f5ffd5b610d5983610cda565b9150610d6760208401610cda565b90509250929050565b5f5f60408385031215610d81575f5ffd5b82359150610d6760208401610cda565b5f60208284031215610da1575f5ffd5b5035919050565b5f5f5f5f5f60a08688031215610dbc575f5ffd5b610dc586610cda565b9450610dd360208701610cda565b93506040860135925060608601359150610def60808701610cda565b90509295509295909350565b634e487b7160e01b5f52601160045260245ffd5b808202811582820484141761047457610474610dfb565b5f82610e4057634e487b7160e01b5f52601260045260245ffd5b500490565b8082018082111561047457610474610dfb565b6001600160801b03818116838216019081111561047457610474610dfb565b6001600160801b03828116828216039081111561047457610474610dfb565b5f60208284031215610ea6575f5ffd5b81518015158114610cd3575f5ffd5b8181038181111561047457610474610dfb56fea26469706673582212208482a749ddd84146a7201e7eecfd0d0513481dfc812a4673f5d747a12cc3848c64736f6c634300081e0033","linkReferences":{}},"methodIdentifiers":{"M()":"693f917e","MIN_LIQUIDITY()":"21b77d63","N()":"c9e525df","SCALE()":"eced5526","burn(address,address,uint256,address)":"fa291e53","getPool(address,address)":"531aa03e","getPoolId(address,address)":"2ef61c21","liquidityBalances(bytes32,address)":"4fb5bf7f","mint(address,address,uint256,uint256,address)":"fa28d692","pools(bytes32)":"b5217bb4","rebalanceSwap(address,address,uint256,address)":"1bd94ac7","totalSupply(bytes32)":"b524abcf"},"id":19}