{"abi":[{"type":"constructor","inputs":[{"name":"admin","type":"address","internalType":"address"},{"name":"factory","type":"address","internalType":"address"}],"stateMutability":"nonpayable"},{"type":"function","name":"BURN_BLOCKED_ROLE","inputs":[],"outputs":[{"name":"","type":"bytes32","internalType":"bytes32"}],"stateMutability":"view"},{"type":"function","name":"DOMAIN_SEPARATOR","inputs":[],"outputs":[{"name":"","type":"bytes32","internalType":"bytes32"}],"stateMutability":"view"},{"type":"function","name":"ISSUER_ROLE","inputs":[],"outputs":[{"name":"","type":"bytes32","internalType":"bytes32"}],"stateMutability":"view"},{"type":"function","name":"PAUSE_ROLE","inputs":[],"outputs":[{"name":"","type":"bytes32","internalType":"bytes32"}],"stateMutability":"view"},{"type":"function","name":"UNPAUSE_ROLE","inputs":[],"outputs":[{"name":"","type":"bytes32","internalType":"bytes32"}],"stateMutability":"view"},{"type":"function","name":"allowance","inputs":[{"name":"","type":"address","internalType":"address"},{"name":"","type":"address","internalType":"address"}],"outputs":[{"name":"","type":"uint256","internalType":"uint256"}],"stateMutability":"view"},{"type":"function","name":"approve","inputs":[{"name":"spender","type":"address","internalType":"address"},{"name":"amount","type":"uint256","internalType":"uint256"}],"outputs":[{"name":"","type":"bool","internalType":"bool"}],"stateMutability":"nonpayable"},{"type":"function","name":"balanceOf","inputs":[{"name":"","type":"address","internalType":"address"}],"outputs":[{"name":"","type":"uint256","internalType":"uint256"}],"stateMutability":"view"},{"type":"function","name":"burn","inputs":[{"name":"amount","type":"uint256","internalType":"uint256"}],"outputs":[],"stateMutability":"nonpayable"},{"type":"function","name":"burnBlocked","inputs":[{"name":"from","type":"address","internalType":"address"},{"name":"amount","type":"uint256","internalType":"uint256"}],"outputs":[],"stateMutability":"nonpayable"},{"type":"function","name":"burnWithMemo","inputs":[{"name":"amount","type":"uint256","internalType":"uint256"},{"name":"memo","type":"bytes32","internalType":"bytes32"}],"outputs":[],"stateMutability":"nonpayable"},{"type":"function","name":"changeTransferPolicyId","inputs":[{"name":"newPolicyId","type":"uint64","internalType":"uint64"}],"outputs":[],"stateMutability":"nonpayable"},{"type":"function","name":"completeLinkingTokenUpdate","inputs":[],"outputs":[],"stateMutability":"nonpayable"},{"type":"function","name":"currency","inputs":[],"outputs":[{"name":"","type":"string","internalType":"string"}],"stateMutability":"view"},{"type":"function","name":"decimals","inputs":[],"outputs":[{"name":"","type":"uint8","internalType":"uint8"}],"stateMutability":"view"},{"type":"function","name":"depth","inputs":[],"outputs":[{"name":"","type":"uint32","internalType":"uint32"}],"stateMutability":"view"},{"type":"function","name":"factory","inputs":[],"outputs":[{"name":"","type":"address","internalType":"address"}],"stateMutability":"view"},{"type":"function","name":"grantRole","inputs":[{"name":"role","type":"bytes32","internalType":"bytes32"},{"name":"account","type":"address","internalType":"address"}],"outputs":[],"stateMutability":"nonpayable"},{"type":"function","name":"linkingToken","inputs":[],"outputs":[{"name":"","type":"address","internalType":"contract TIP20"}],"stateMutability":"view"},{"type":"function","name":"mint","inputs":[{"name":"to","type":"address","internalType":"address"},{"name":"amount","type":"uint256","internalType":"uint256"}],"outputs":[],"stateMutability":"nonpayable"},{"type":"function","name":"mintWithMemo","inputs":[{"name":"to","type":"address","internalType":"address"},{"name":"amount","type":"uint256","internalType":"uint256"},{"name":"memo","type":"bytes32","internalType":"bytes32"}],"outputs":[],"stateMutability":"nonpayable"},{"type":"function","name":"name","inputs":[],"outputs":[{"name":"","type":"string","internalType":"string"}],"stateMutability":"view"},{"type":"function","name":"nextLinkingToken","inputs":[],"outputs":[{"name":"","type":"address","internalType":"contract TIP20"}],"stateMutability":"view"},{"type":"function","name":"nonces","inputs":[{"name":"","type":"address","internalType":"address"}],"outputs":[{"name":"","type":"uint256","internalType":"uint256"}],"stateMutability":"view"},{"type":"function","name":"pause","inputs":[],"outputs":[],"stateMutability":"nonpayable"},{"type":"function","name":"paused","inputs":[],"outputs":[{"name":"","type":"bool","internalType":"bool"}],"stateMutability":"view"},{"type":"function","name":"permit","inputs":[{"name":"owner","type":"address","internalType":"address"},{"name":"spender","type":"address","internalType":"address"},{"name":"value","type":"uint256","internalType":"uint256"},{"name":"deadline","type":"uint256","internalType":"uint256"},{"name":"v","type":"uint8","internalType":"uint8"},{"name":"r","type":"bytes32","internalType":"bytes32"},{"name":"s","type":"bytes32","internalType":"bytes32"}],"outputs":[],"stateMutability":"nonpayable"},{"type":"function","name":"renounceRole","inputs":[{"name":"role","type":"bytes32","internalType":"bytes32"}],"outputs":[],"stateMutability":"nonpayable"},{"type":"function","name":"revokeRole","inputs":[{"name":"role","type":"bytes32","internalType":"bytes32"},{"name":"account","type":"address","internalType":"address"}],"outputs":[],"stateMutability":"nonpayable"},{"type":"function","name":"setNextLinkingToken","inputs":[{"name":"newLinkingToken","type":"address","internalType":"contract TIP20"}],"outputs":[],"stateMutability":"nonpayable"},{"type":"function","name":"setRoleAdmin","inputs":[{"name":"role","type":"bytes32","internalType":"bytes32"},{"name":"adminRole","type":"bytes32","internalType":"bytes32"}],"outputs":[],"stateMutability":"nonpayable"},{"type":"function","name":"setSupplyCap","inputs":[{"name":"newSupplyCap","type":"uint256","internalType":"uint256"}],"outputs":[],"stateMutability":"nonpayable"},{"type":"function","name":"supplyCap","inputs":[],"outputs":[{"name":"","type":"uint256","internalType":"uint256"}],"stateMutability":"view"},{"type":"function","name":"symbol","inputs":[],"outputs":[{"name":"","type":"string","internalType":"string"}],"stateMutability":"view"},{"type":"function","name":"systemTransferFrom","inputs":[{"name":"from","type":"address","internalType":"address"},{"name":"to","type":"address","internalType":"address"},{"name":"amount","type":"uint256","internalType":"uint256"}],"outputs":[{"name":"","type":"bool","internalType":"bool"}],"stateMutability":"nonpayable"},{"type":"function","name":"totalSupply","inputs":[],"outputs":[{"name":"","type":"uint256","internalType":"uint256"}],"stateMutability":"view"},{"type":"function","name":"transfer","inputs":[{"name":"","type":"address","internalType":"address"},{"name":"","type":"uint256","internalType":"uint256"}],"outputs":[{"name":"","type":"bool","internalType":"bool"}],"stateMutability":"nonpayable"},{"type":"function","name":"transferFeePostTx","inputs":[{"name":"to","type":"address","internalType":"address"},{"name":"refund","type":"uint256","internalType":"uint256"},{"name":"actualUsed","type":"uint256","internalType":"uint256"}],"outputs":[],"stateMutability":"nonpayable"},{"type":"function","name":"transferFeePreTx","inputs":[{"name":"from","type":"address","internalType":"address"},{"name":"amount","type":"uint256","internalType":"uint256"}],"outputs":[],"stateMutability":"nonpayable"},{"type":"function","name":"transferFrom","inputs":[{"name":"","type":"address","internalType":"address"},{"name":"","type":"address","internalType":"address"},{"name":"","type":"uint256","internalType":"uint256"}],"outputs":[{"name":"","type":"bool","internalType":"bool"}],"stateMutability":"nonpayable"},{"type":"function","name":"transferFromWithMemo","inputs":[{"name":"","type":"address","internalType":"address"},{"name":"","type":"address","internalType":"address"},{"name":"","type":"uint256","internalType":"uint256"},{"name":"","type":"bytes32","internalType":"bytes32"}],"outputs":[{"name":"","type":"bool","internalType":"bool"}],"stateMutability":"nonpayable"},{"type":"function","name":"transferPolicyId","inputs":[],"outputs":[{"name":"","type":"uint64","internalType":"uint64"}],"stateMutability":"view"},{"type":"function","name":"transferWithMemo","inputs":[{"name":"","type":"address","internalType":"address"},{"name":"","type":"uint256","internalType":"uint256"},{"name":"","type":"bytes32","internalType":"bytes32"}],"outputs":[],"stateMutability":"nonpayable"},{"type":"function","name":"unpause","inputs":[],"outputs":[],"stateMutability":"nonpayable"},{"type":"event","name":"Approval","inputs":[{"name":"owner","type":"address","indexed":true,"internalType":"address"},{"name":"spender","type":"address","indexed":true,"internalType":"address"},{"name":"amount","type":"uint256","indexed":false,"internalType":"uint256"}],"anonymous":false},{"type":"event","name":"Burn","inputs":[{"name":"from","type":"address","indexed":true,"internalType":"address"},{"name":"amount","type":"uint256","indexed":false,"internalType":"uint256"}],"anonymous":false},{"type":"event","name":"BurnBlocked","inputs":[{"name":"from","type":"address","indexed":true,"internalType":"address"},{"name":"amount","type":"uint256","indexed":false,"internalType":"uint256"}],"anonymous":false},{"type":"event","name":"LinkingTokenUpdate","inputs":[{"name":"updater","type":"address","indexed":true,"internalType":"address"},{"name":"newLinkingToken","type":"address","indexed":true,"internalType":"contract TIP20"}],"anonymous":false},{"type":"event","name":"Mint","inputs":[{"name":"to","type":"address","indexed":true,"internalType":"address"},{"name":"amount","type":"uint256","indexed":false,"internalType":"uint256"}],"anonymous":false},{"type":"event","name":"NextLinkingTokenSet","inputs":[{"name":"updater","type":"address","indexed":true,"internalType":"address"},{"name":"nextLinkingToken","type":"address","indexed":true,"internalType":"contract TIP20"}],"anonymous":false},{"type":"event","name":"PauseStateUpdate","inputs":[{"name":"updater","type":"address","indexed":true,"internalType":"address"},{"name":"isPaused","type":"bool","indexed":false,"internalType":"bool"}],"anonymous":false},{"type":"event","name":"RoleAdminUpdated","inputs":[{"name":"role","type":"bytes32","indexed":true,"internalType":"bytes32"},{"name":"newAdminRole","type":"bytes32","indexed":true,"internalType":"bytes32"},{"name":"sender","type":"address","indexed":true,"internalType":"address"}],"anonymous":false},{"type":"event","name":"RoleMembershipUpdated","inputs":[{"name":"role","type":"bytes32","indexed":true,"internalType":"bytes32"},{"name":"account","type":"address","indexed":true,"internalType":"address"},{"name":"sender","type":"address","indexed":true,"internalType":"address"},{"name":"hasRole","type":"bool","indexed":false,"internalType":"bool"}],"anonymous":false},{"type":"event","name":"SupplyCapUpdate","inputs":[{"name":"updater","type":"address","indexed":true,"internalType":"address"},{"name":"newSupplyCap","type":"uint256","indexed":true,"internalType":"uint256"}],"anonymous":false},{"type":"event","name":"Transfer","inputs":[{"name":"from","type":"address","indexed":true,"internalType":"address"},{"name":"to","type":"address","indexed":true,"internalType":"address"},{"name":"amount","type":"uint256","indexed":false,"internalType":"uint256"}],"anonymous":false},{"type":"event","name":"TransferPolicyUpdate","inputs":[{"name":"updater","type":"address","indexed":true,"internalType":"address"},{"name":"newPolicyId","type":"uint64","indexed":true,"internalType":"uint64"}],"anonymous":false},{"type":"event","name":"TransferWithMemo","inputs":[{"name":"from","type":"address","indexed":true,"internalType":"address"},{"name":"to","type":"address","indexed":true,"internalType":"address"},{"name":"amount","type":"uint256","indexed":false,"internalType":"uint256"},{"name":"memo","type":"bytes32","indexed":true,"internalType":"bytes32"}],"anonymous":false},{"type":"error","name":"ContractPaused","inputs":[]},{"type":"error","name":"Expired","inputs":[]},{"type":"error","name":"InsufficientAllowance","inputs":[]},{"type":"error","name":"InsufficientBalance","inputs":[]},{"type":"error","name":"InvalidCurrency","inputs":[]},{"type":"error","name":"InvalidLinkingToken","inputs":[]},{"type":"error","name":"InvalidRecipient","inputs":[]},{"type":"error","name":"InvalidSignature","inputs":[]},{"type":"error","name":"PolicyForbids","inputs":[]},{"type":"error","name":"SupplyCapExceeded","inputs":[]},{"type":"error","name":"TransfersDisabled","inputs":[]},{"type":"error","name":"Unauthorized","inputs":[]}],"bytecode":{"object":"0x60c060405260068054600160a01b600160e01b031916600160a01b179055600b805460ff191690555f19600c55348015610037575f5ffd5b5060405161233b38038061233b833981016040819052610056916102ba565b604080518082018252600a808252691b1a5b9ada5b99d554d160b21b60208084018290528451808601865292835282810191909152835180850190945260038452621554d160ea1b848201525f195f81815260019092527fc39d774f18115b85b81494d65e588b565d73abc969333d1da7b0a0eb0729accd5591929091858560026100e18782610383565b5060036100ee8682610383565b5060046100fb8582610383565b50600580546001600160a01b03199081166001600160a01b03868116918217909355600680549092161790558116608052610134610230565b60ff165f0361015657604051631eb3268560e31b815260040160405180910390fd5b6001600160a01b0382165f90815260208181526040808320838052825291829020805460ff1916600190811790915588518983012083518085018552918252603160f81b9183019190915282517f8b73c3c69bb8fe3d512ecc4cf759cc79239f7b179b0ffacaa9a75d522b39400f92810192909252918101919091527fc89efdaa54c0f20c7adf612882df0950f5a951637e0307cdcb4c672f298b8bc660608201524660808201523060a082015260c00160408051601f19818403018152919052805160209091012060a052506104eb9650505050505050565b604051638d26318760e01b81525f906201085f608e1b90638d2631879061025b90600490810161043d565b602060405180830381865afa158015610276573d5f5f3e3d5ffd5b505050506040513d601f19601f8201168201806040525081019061029a91906104c4565b905090565b80516001600160a01b03811681146102b5575f5ffd5b919050565b5f5f604083850312156102cb575f5ffd5b6102d48361029f565b91506102e26020840161029f565b90509250929050565b634e487b7160e01b5f52604160045260245ffd5b600181811c9082168061031357607f821691505b60208210810361033157634e487b7160e01b5f52602260045260245ffd5b50919050565b601f82111561037e57805f5260205f20601f840160051c8101602085101561035c5750805b601f840160051c820191505b8181101561037b575f8155600101610368565b50505b505050565b81516001600160401b0381111561039c5761039c6102eb565b6103b0816103aa84546102ff565b84610337565b6020601f8211600181146103e2575f83156103cb5750848201515b5f19600385901b1c1916600184901b17845561037b565b5f84815260208120601f198516915b8281101561041157878501518255602094850194600190920191016103f1565b508482101561042e57868401515f19600387901b60f8161c191681555b50505050600190811b01905550565b602081525f5f835461044e816102ff565b806020860152600182165f811461046c5760018114610488576104b9565b60ff1983166040870152604082151560051b87010193506104b9565b865f5260205f205f5b838110156104b057815488820160400152600190910190602001610491565b87016040019450505b509195945050505050565b5f602082840312156104d4575f5ffd5b815160ff811681146104e4575f5ffd5b9392505050565b60805160a051611e2161051a5f395f818161038a015261122b01525f818161058c0152610dd20152611e215ff3fe608060405234801561000f575f5ffd5b506004361061026b575f3560e01c80637eabdc461161014b578063a9059cbb116100bf578063dd62ed3e11610084578063dd62ed3e146105d4578063e44f0b12146105fe578063e5a6b10f14610611578063ec0cf3dc14610619578063fbd6948f1461062c578063fd5e94201461063f575f5ffd5b8063a9059cbb14610566578063b6a3f59a14610574578063c45a015514610587578063d505accf146105ae578063d547741f146105c1575f5ffd5b80638f770ad0116101105780638f770ad0146104ed578063929c2539146104f657806395777d591461050457806395d89b41146105175780639c4bad291461051f578063a7d6909914610553575f5ffd5b80637eabdc461461048c5780637ecebe001461049f57806382aefa24146104be5780638456cb59146104d25780638bb9c5bf146104da575f5ffd5b80633644e515116101e257806342966c68116101a757806342966c68146104015780635c975abb14610414578063631c56ef1461042157806370a082311461042f578063728e03091461044e5780637757c6cf14610479575f5ffd5b80633644e51514610385578063389ed267146103ac57806338f23b0b146103d35780633f4ba83a146103e657806340c10f19146103ee575f5ffd5b806323b872dd1161023357806323b872dd146102ef578063255f7ee5146103025780632f2ff15d1461030a578063309756fb1461031d578063313ce5671461034457806332ad9be81461035e575f5ffd5b806305dbb5e01461026f57806306fdde0314610284578063095ea7b3146102a257806318160ddd146102c55780631e4e0091146102dc575b5f5ffd5b61028261027d366004611a0e565b610652565b005b61028c6106eb565b6040516102999190611a38565b60405180910390f35b6102b56102b0366004611a0e565b610777565b6040519015158152602001610299565b6102ce60075481565b604051908152602001610299565b6102826102ea366004611a6d565b6107e3565b6102b56102fd366004611a8d565b610866565b6102826108a5565b610282610318366004611acb565b6109dc565b6102ce7f265b220c5a8891efdd9e1b1b7fa72f257bd5169f8d87e319cf3dad6ff52b94ae81565b61034c610a89565b60405160ff9091168152602001610299565b6102ce7f7408fdc0d31c7bcb349eab611f5d1168acd4303574993f8cdc98b1cd18c41cae81565b6102ce7f000000000000000000000000000000000000000000000000000000000000000081565b6102ce7f139c2898040ef16910dc9f44dc697df79363da767d8bc92f2e310312b816e46d81565b6102826103e1366004611a6d565b610af8565b610282610bc5565b6102826103fc366004611a0e565b610c60565b61028261040f366004611af9565b610cea565b600b546102b59060ff1681565b6040515f8152602001610299565b6102ce61043d366004611b10565b60086020525f908152604090205481565b600654610461906001600160a01b031681565b6040516001600160a01b039091168152602001610299565b610282610487366004611b10565b610d7c565b600554610461906001600160a01b031681565b6102ce6104ad366004611b10565b600a6020525f908152604090205481565b6102ce5f516020611dcc5f395f51905f5281565b610282610ea4565b6102826104e8366004611af9565b610f3e565b6102ce600c5481565b6102b56102fd366004611b32565b610282610512366004611b75565b610fcd565b61028c610ff1565b60065461053a90600160a01b900467ffffffffffffffff1681565b60405167ffffffffffffffff9091168152602001610299565b610282610561366004611b75565b610ffe565b6102b56102fd366004611a0e565b610282610582366004611af9565b6110e3565b6104617f000000000000000000000000000000000000000000000000000000000000000081565b6102826105bc366004611bb5565b611172565b6102826105cf366004611acb565b61137a565b6102ce6105e2366004611c21565b600960209081525f928352604080842090915290825290205481565b61028261060c366004611b75565b611416565b61028c6114fc565b610282610627366004611a0e565b611509565b6102b561063a366004611a8d565b611653565b61028261064d366004611c4d565b61180d565b33613fbb60921b14610662575f5ffd5b6001600160a01b0382165f9081526008602052604090205481111561069a57604051631e9acf1760e31b815260040160405180910390fd5b6001600160a01b039091165f90815260086020526040812080548390039055613fbb60921b90527ffe9f059231087294c19e08742d222f13345d2d0f1bb02bf7b0068d0dfaf7db2c80549091019055565b600280546106f890611c74565b80601f016020809104026020016040519081016040528092919081815260200182805461072490611c74565b801561076f5780601f106107465761010080835404028352916020019161076f565b820191905f5260205f20905b81548152906001019060200180831161075257829003601f168201915b505050505081565b335f8181526009602090815260408083206001600160a01b038716808552925280832085905551919290917f8c5be1e5ebec7d5bd14f71427d1e84f3dd0314c0f7b2291e5b200ac8c7c3b925906107d19086815260200190565b60405180910390a35060015b92915050565b5f828152600160209081526040808320543384528383528184208185529092529091205460ff16610826576040516282b42960e81b815260040160405180910390fd5b5f83815260016020526040808220849055513391849186917f70d85637458e639f63e6106179309eadde21dacce320d9549168d49d0a9d698291a4505050565b600b545f9060ff161561088c5760405163ab35696f60e01b815260040160405180910390fd5b604051638574adcf60e01b815260040160405180910390fd5b335f9081526020818152604080832083805290915281205460ff166108dc576040516282b42960e81b815260040160405180910390fd5b6006546001600160a01b03165b608360961b6001600160a01b0382161461098d57306001600160a01b038216036109265760405163ba72c57d60e01b815260040160405180910390fd5b806001600160a01b0316637eabdc466040518163ffffffff1660e01b8152600401602060405180830381865afa158015610962573d5f5f3e3d5ffd5b505050506040513d601f19601f820116820180604052508101906109869190611cac565b90506108e9565b600654600580546001600160a01b0319166001600160a01b03909216918217905560405133907ffad7bc1b1e64c532aeef6f1f63c8224b463f608f9fc04a894ed979694e454d02905f90a35050565b5f828152600160209081526040808320543384528383528184208185529092529091205460ff16610a1f576040516282b42960e81b815260040160405180910390fd5b6001600160a01b0382165f81815260208181526040808320878452825291829020805460ff19166001908117909155915191825233929186917f4811f35680ba814bed6b0b926a2949c8a1000f4f2443cfe9978745d46a251aec91015b60405180910390a4505050565b604051638d26318760e01b81525f906201085f608e1b90638d26318790610ab4906004908101611cc7565b602060405180830381865afa158015610acf573d5f5f3e3d5ffd5b505050506040513d601f19601f82011682018060405250810190610af39190611d72565b905090565b335f908152602081815260408083205f516020611dcc5f395f51905f5280855292529091205460ff16610b3d576040516282b42960e81b815260040160405180910390fd5b610b48335f8561189e565b60078054849003905560405183815282905f9033907f57bc7354aa85aed339e000bccffabbc529466af35f0772c8f8ee1145927de7f09060200160405180910390a460405183815233907fcc16f5dbb4873280815c1ee09dbd06736cffcc184412cf7a71a0fdb75d397ca5906020015b60405180910390a2505050565b335f908152602081815260408083207f265b220c5a8891efdd9e1b1b7fa72f257bd5169f8d87e319cf3dad6ff52b94ae80855292529091205460ff16610c1d576040516282b42960e81b815260040160405180910390fd5b600b805460ff191690556040515f815233907ff79595a776ff71356be9e7ff196226a16d0f4d637ff39031256c0eafd7af6b5e906020015b60405180910390a250565b335f908152602081815260408083205f516020611dcc5f395f51905f5280855292529091205460ff16610ca5576040516282b42960e81b815260040160405180910390fd5b610caf838361196c565b826001600160a01b03167f0f6798a560793a54c3bcfe86a93cde1e73087d944c0ea20544137d412139688583604051610bb891815260200190565b335f908152602081815260408083205f516020611dcc5f395f51905f5280855292529091205460ff16610d2f576040516282b42960e81b815260040160405180910390fd5b610d3a335f8461189e565b60078054839003905560405182815233907fcc16f5dbb4873280815c1ee09dbd06736cffcc184412cf7a71a0fdb75d397ca59060200160405180910390a25050565b335f9081526020818152604080832083805290915281205460ff16610db3576040516282b42960e81b815260040160405180910390fd5b6040516335ec42c960e01b81526001600160a01b0383811660048301527f000000000000000000000000000000000000000000000000000000000000000016906335ec42c990602401602060405180830381865afa158015610e17573d5f5f3e3d5ffd5b505050506040513d601f19601f82011682018060405250810190610e3b9190611d8d565b610e585760405163ba72c57d60e01b815260040160405180910390fd5b600680546001600160a01b0319166001600160a01b03841690811790915560405133907f1600762e80fa71db7c49d0560a825ff8f470d66f5441008f366e5304ae31907f905f90a35050565b335f908152602081815260408083207f139c2898040ef16910dc9f44dc697df79363da767d8bc92f2e310312b816e46d80855292529091205460ff16610efc576040516282b42960e81b815260040160405180910390fd5b600b805460ff1916600190811790915560405190815233907ff79595a776ff71356be9e7ff196226a16d0f4d637ff39031256c0eafd7af6b5e90602001610c55565b335f90815260208181526040808320848452909152902054819060ff16610f77576040516282b42960e81b815260040160405180910390fd5b335f818152602081815260408083208684528252808320805460ff1916905551918252829185917f4811f35680ba814bed6b0b926a2949c8a1000f4f2443cfe9978745d46a251aec910160405180910390a45050565b600b5460ff161561088c5760405163ab35696f60e01b815260040160405180910390fd5b600380546106f890611c74565b33613fbb60921b1461100e575f5ffd5b613fbb60921b5f5260086020527ffe9f059231087294c19e08742d222f13345d2d0f1bb02bf7b0068d0dfaf7db2c548083111561105e57604051631e9acf1760e31b815260040160405180910390fd5b600860209081527ffe9f059231087294c19e08742d222f13345d2d0f1bb02bf7b0068d0dfaf7db2c805485900390556001600160a01b0385165f81815260409081902080548701905551848152613fbb60921b927fddf252ad1be2c89b69c2b068fc378daa952ba7f163c4a11628f55a4df523b3ef910160405180910390a350505050565b335f9081526020818152604080832083805290915281205460ff1661111a576040516282b42960e81b815260040160405180910390fd5b60075482101561113d57604051637ac7b99d60e11b815260040160405180910390fd5b600c829055604051829033907f6d7e6630766134be7e051b11b8882e6f47926ddd2fd1268bebd168c30f055c4f905f90a35050565b8342111561119357604051630407b05b60e31b815260040160405180910390fd5b6001600160a01b038781165f818152600a6020908152604080832080546001810190915581517f6e71edae12b1b97f4d1f60370fef10105fa2faae0126114a169c64845d6126c98185015280830195909552948b166060850152608084018a905260a084019490945260c08084018990528451808503909101815260e08401909452835193019290922061190160f01b6101008301527f00000000000000000000000000000000000000000000000000000000000000006101028301526101228201526101420160408051601f1981840301815282825280516020918201205f80855291840180845281905260ff88169284019290925260608301869052608083018590529092509060019060a0016020604051602081039080840390855afa1580156112c2573d5f5f3e3d5ffd5b505050602060405103519050886001600160a01b0316816001600160a01b03161415806112f657506001600160a01b038116155b1561131457604051638baa579f60e01b815260040160405180910390fd5b50506001600160a01b038781165f818152600960209081526040808320948b168084529482529182902089905590518881527f8c5be1e5ebec7d5bd14f71427d1e84f3dd0314c0f7b2291e5b200ac8c7c3b925910160405180910390a350505050505050565b5f828152600160209081526040808320543384528383528184208185529092529091205460ff166113bd576040516282b42960e81b815260040160405180910390fd5b6001600160a01b0382165f818152602081815260408083208784528252808320805460ff191690555191825233929186917f4811f35680ba814bed6b0b926a2949c8a1000f4f2443cfe9978745d46a251aec9101610a7c565b335f908152602081815260408083205f516020611dcc5f395f51905f5280855292529091205460ff1661145b576040516282b42960e81b815260040160405180910390fd5b611465848461196c565b81846001600160a01b03165f6001600160a01b03167f57bc7354aa85aed339e000bccffabbc529466af35f0772c8f8ee1145927de7f0866040516114ab91815260200190565b60405180910390a4836001600160a01b03167f0f6798a560793a54c3bcfe86a93cde1e73087d944c0ea20544137d4121396885846040516114ee91815260200190565b60405180910390a250505050565b600480546106f890611c74565b335f908152602081815260408083207f7408fdc0d31c7bcb349eab611f5d1168acd4303574993f8cdc98b1cd18c41cae80855292529091205460ff16611561576040516282b42960e81b815260040160405180910390fd5b600654604051632ad08bcf60e11b8152600160a01b90910467ffffffffffffffff1660048201526001600160a01b038416602482015261100f60921b906355a1179e90604401602060405180830381865afa1580156115c2573d5f5f3e3d5ffd5b505050506040513d601f19601f820116820180604052508101906115e69190611d8d565b15611604576040516354cfe65960e01b815260040160405180910390fd5b61160f835f8461189e565b6007805483900390556040518281526001600160a01b038416907feff07194896bfa6254e521809f217f70dbdd9cefa6b894f5326af3ce8402c32090602001610bb8565b600b545f9060ff16156116795760405163ab35696f60e01b815260040160405180910390fd5b826bffffffffffffffffffffffff604082901c166001605d1b036116b057604051634e46966960e11b815260040160405180910390fd5b600654604051632ad08bcf60e11b8152600160a01b90910467ffffffffffffffff1660048201526001600160a01b03861660248201528590859061100f60921b906355a1179e90604401602060405180830381865afa158015611715573d5f5f3e3d5ffd5b505050506040513d601f19601f820116820180604052508101906117399190611d8d565b15806117c75750600654604051632ad08bcf60e11b8152600160a01b90910467ffffffffffffffff1660048201526001600160a01b038216602482015261100f60921b906355a1179e90604401602060405180830381865afa1580156117a1573d5f5f3e3d5ffd5b505050506040513d601f19601f820116820180604052508101906117c59190611d8d565b155b156117e5576040516354cfe65960e01b815260040160405180910390fd5b33613fbb60921b146117f5575f5ffd5b61180087878761189e565b5060019695505050505050565b335f9081526020818152604080832083805290915281205460ff16611844576040516282b42960e81b815260040160405180910390fd5b6006805467ffffffffffffffff60a01b1916600160a01b67ffffffffffffffff85169081029190911790915560405133907fa870ab07b4f8e8e92e8876245ea0ec666bc09ccf6814a1fb6a8e6984b1932cce905f90a35050565b6001600160a01b0383165f908152600860205260409020548111156118d657604051631e9acf1760e31b815260040160405180910390fd5b6001600160a01b038084165f9081526008602052604090208054839003905582161561191a576001600160a01b0382165f9081526008602052604090208054820190555b816001600160a01b0316836001600160a01b03167fddf252ad1be2c89b69c2b068fc378daa952ba7f163c4a11628f55a4df523b3ef8360405161195f91815260200190565b60405180910390a3505050565b600c548160075461197d9190611dac565b111561199c57604051637ac7b99d60e11b815260040160405180910390fd5b60078054820190556001600160a01b0382165f818152600860209081526040808320805486019055518481527fddf252ad1be2c89b69c2b068fc378daa952ba7f163c4a11628f55a4df523b3ef910160405180910390a35050565b6001600160a01b0381168114611a0b575f5ffd5b50565b5f5f60408385031215611a1f575f5ffd5b8235611a2a816119f7565b946020939093013593505050565b602081525f82518060208401528060208501604085015e5f604082850101526040601f19601f83011684010191505092915050565b5f5f60408385031215611a7e575f5ffd5b50508035926020909101359150565b5f5f5f60608486031215611a9f575f5ffd5b8335611aaa816119f7565b92506020840135611aba816119f7565b929592945050506040919091013590565b5f5f60408385031215611adc575f5ffd5b823591506020830135611aee816119f7565b809150509250929050565b5f60208284031215611b09575f5ffd5b5035919050565b5f60208284031215611b20575f5ffd5b8135611b2b816119f7565b9392505050565b5f5f5f5f60808587031215611b45575f5ffd5b8435611b50816119f7565b93506020850135611b60816119f7565b93969395505050506040820135916060013590565b5f5f5f60608486031215611b87575f5ffd5b8335611b92816119f7565b95602085013595506040909401359392505050565b60ff81168114611a0b575f5ffd5b5f5f5f5f5f5f5f60e0888a031215611bcb575f5ffd5b8735611bd6816119f7565b96506020880135611be6816119f7565b955060408801359450606088013593506080880135611c0481611ba7565b9699959850939692959460a0840135945060c09093013592915050565b5f5f60408385031215611c32575f5ffd5b8235611c3d816119f7565b91506020830135611aee816119f7565b5f60208284031215611c5d575f5ffd5b813567ffffffffffffffff81168114611b2b575f5ffd5b600181811c90821680611c8857607f821691505b602082108103611ca657634e487b7160e01b5f52602260045260245ffd5b50919050565b5f60208284031215611cbc575f5ffd5b8151611b2b816119f7565b602081525f5f83545f8160011c90506001821680611ce657607f821691505b602082108103611d0457634e487b7160e01b5f52602260045260245ffd5b6020860182905260408601818015611d235760018114611d3957611d65565b60ff198516825283151560051b82019550611d65565b5f898152602090205f5b85811015611d5f57815484820152600190910190602001611d43565b83019650505b5093979650505050505050565b5f60208284031215611d82575f5ffd5b8151611b2b81611ba7565b5f60208284031215611d9d575f5ffd5b81518015158114611b2b575f5ffd5b808201808211156107dd57634e487b7160e01b5f52601160045260245ffdfe114e74f6ea3bd819998f78687bfcb11b140da08e9b7d222fa9c1f1ba1f2aa122a26469706673582212205f77e4e4e2676099ad505d27e78eea355fbed53501cd1f69afde0db854aa30f264736f6c634300081e0033","linkReferences":{}},"methodIdentifiers":{"BURN_BLOCKED_ROLE()":"32ad9be8","DOMAIN_SEPARATOR()":"3644e515","ISSUER_ROLE()":"82aefa24","PAUSE_ROLE()":"389ed267","UNPAUSE_ROLE()":"309756fb","allowance(address,address)":"dd62ed3e","approve(address,uint256)":"095ea7b3","balanceOf(address)":"70a08231","burn(uint256)":"42966c68","burnBlocked(address,uint256)":"ec0cf3dc","burnWithMemo(uint256,bytes32)":"38f23b0b","changeTransferPolicyId(uint64)":"fd5e9420","completeLinkingTokenUpdate()":"255f7ee5","currency()":"e5a6b10f","decimals()":"313ce567","depth()":"631c56ef","factory()":"c45a0155","grantRole(bytes32,address)":"2f2ff15d","linkingToken()":"7eabdc46","mint(address,uint256)":"40c10f19","mintWithMemo(address,uint256,bytes32)":"e44f0b12","name()":"06fdde03","nextLinkingToken()":"728e0309","nonces(address)":"7ecebe00","pause()":"8456cb59","paused()":"5c975abb","permit(address,address,uint256,uint256,uint8,bytes32,bytes32)":"d505accf","renounceRole(bytes32)":"8bb9c5bf","revokeRole(bytes32,address)":"d547741f","setNextLinkingToken(address)":"7757c6cf","setRoleAdmin(bytes32,bytes32)":"1e4e0091","setSupplyCap(uint256)":"b6a3f59a","supplyCap()":"8f770ad0","symbol()":"95d89b41","systemTransferFrom(address,address,uint256)":"fbd6948f","totalSupply()":"18160ddd","transfer(address,uint256)":"a9059cbb","transferFeePostTx(address,uint256,uint256)":"a7d69099","transferFeePreTx(address,uint256)":"05dbb5e0","transferFrom(address,address,uint256)":"23b872dd","transferFromWithMemo(address,address,uint256,bytes32)":"929c2539","transferPolicyId()":"9c4bad29","transferWithMemo(address,uint256,bytes32)":"95777d59","unpause()":"3f4ba83a"},"id":24}