{"abi":[{"type":"constructor","inputs":[],"stateMutability":"nonpayable"},{"type":"function","name":"M","inputs":[],"outputs":[{"name":"","type":"uint256","internalType":"uint256"}],"stateMutability":"view"},{"type":"function","name":"MIN_LIQUIDITY","inputs":[],"outputs":[{"name":"","type":"uint256","internalType":"uint256"}],"stateMutability":"view"},{"type":"function","name":"N","inputs":[],"outputs":[{"name":"","type":"uint256","internalType":"uint256"}],"stateMutability":"view"},{"type":"function","name":"SCALE","inputs":[],"outputs":[{"name":"","type":"uint256","internalType":"uint256"}],"stateMutability":"view"},{"type":"function","name":"burn","inputs":[{"name":"userToken","type":"address","internalType":"address"},{"name":"validatorToken","type":"address","internalType":"address"},{"name":"liquidity","type":"uint256","internalType":"uint256"},{"name":"to","type":"address","internalType":"address"}],"outputs":[{"name":"amountUserToken","type":"uint256","internalType":"uint256"},{"name":"amountValidatorToken","type":"uint256","internalType":"uint256"}],"stateMutability":"nonpayable"},{"type":"function","name":"collectFeePostTx","inputs":[{"name":"user","type":"address","internalType":"address"},{"name":"maxAmount","type":"uint256","internalType":"uint256"},{"name":"actualUsed","type":"uint256","internalType":"uint256"},{"name":"userToken","type":"address","internalType":"address"},{"name":"validatorToken","type":"address","internalType":"address"}],"outputs":[],"stateMutability":"nonpayable"},{"type":"function","name":"collectFeePreTx","inputs":[{"name":"user","type":"address","internalType":"address"},{"name":"txToAddress","type":"address","internalType":"address"},{"name":"maxAmount","type":"uint256","internalType":"uint256"}],"outputs":[{"name":"userToken","type":"address","internalType":"address"}],"stateMutability":"nonpayable"},{"type":"function","name":"executeBlock","inputs":[],"outputs":[],"stateMutability":"nonpayable"},{"type":"function","name":"getPool","inputs":[{"name":"userToken","type":"address","internalType":"address"},{"name":"validatorToken","type":"address","internalType":"address"}],"outputs":[{"name":"","type":"tuple","internalType":"struct FeeAMM.Pool","components":[{"name":"reserveUserToken","type":"uint128","internalType":"uint128"},{"name":"reserveValidatorToken","type":"uint128","internalType":"uint128"}]}],"stateMutability":"view"},{"type":"function","name":"getPoolId","inputs":[{"name":"userToken","type":"address","internalType":"address"},{"name":"validatorToken","type":"address","internalType":"address"}],"outputs":[{"name":"","type":"bytes32","internalType":"bytes32"}],"stateMutability":"pure"},{"type":"function","name":"liquidityBalances","inputs":[{"name":"","type":"bytes32","internalType":"bytes32"},{"name":"","type":"address","internalType":"address"}],"outputs":[{"name":"","type":"uint256","internalType":"uint256"}],"stateMutability":"view"},{"type":"function","name":"mint","inputs":[{"name":"userToken","type":"address","internalType":"address"},{"name":"validatorToken","type":"address","internalType":"address"},{"name":"amountUserToken","type":"uint256","internalType":"uint256"},{"name":"amountValidatorToken","type":"uint256","internalType":"uint256"},{"name":"to","type":"address","internalType":"address"}],"outputs":[{"name":"liquidity","type":"uint256","internalType":"uint256"}],"stateMutability":"nonpayable"},{"type":"function","name":"pools","inputs":[{"name":"","type":"bytes32","internalType":"bytes32"}],"outputs":[{"name":"reserveUserToken","type":"uint128","internalType":"uint128"},{"name":"reserveValidatorToken","type":"uint128","internalType":"uint128"}],"stateMutability":"view"},{"type":"function","name":"rebalanceSwap","inputs":[{"name":"userToken","type":"address","internalType":"address"},{"name":"validatorToken","type":"address","internalType":"address"},{"name":"amountOut","type":"uint256","internalType":"uint256"},{"name":"to","type":"address","internalType":"address"}],"outputs":[{"name":"amountIn","type":"uint256","internalType":"uint256"}],"stateMutability":"nonpayable"},{"type":"function","name":"setUserToken","inputs":[{"name":"token","type":"address","internalType":"address"}],"outputs":[],"stateMutability":"nonpayable"},{"type":"function","name":"setValidatorToken","inputs":[{"name":"token","type":"address","internalType":"address"}],"outputs":[],"stateMutability":"nonpayable"},{"type":"function","name":"totalSupply","inputs":[{"name":"","type":"bytes32","internalType":"bytes32"}],"outputs":[{"name":"","type":"uint256","internalType":"uint256"}],"stateMutability":"view"},{"type":"function","name":"userTokens","inputs":[{"name":"","type":"address","internalType":"address"}],"outputs":[{"name":"","type":"address","internalType":"address"}],"stateMutability":"view"},{"type":"function","name":"validatorTokens","inputs":[{"name":"","type":"address","internalType":"address"}],"outputs":[{"name":"","type":"address","internalType":"address"}],"stateMutability":"view"},{"type":"event","name":"Burn","inputs":[{"name":"sender","type":"address","indexed":true,"internalType":"address"},{"name":"userToken","type":"address","indexed":true,"internalType":"address"},{"name":"validatorToken","type":"address","indexed":true,"internalType":"address"},{"name":"amountUserToken","type":"uint256","indexed":false,"internalType":"uint256"},{"name":"amountValidatorToken","type":"uint256","indexed":false,"internalType":"uint256"},{"name":"liquidity","type":"uint256","indexed":false,"internalType":"uint256"},{"name":"to","type":"address","indexed":false,"internalType":"address"}],"anonymous":false},{"type":"event","name":"FeeSwap","inputs":[{"name":"userToken","type":"address","indexed":true,"internalType":"address"},{"name":"validatorToken","type":"address","indexed":true,"internalType":"address"},{"name":"amountIn","type":"uint256","indexed":false,"internalType":"uint256"},{"name":"amountOut","type":"uint256","indexed":false,"internalType":"uint256"}],"anonymous":false},{"type":"event","name":"Mint","inputs":[{"name":"sender","type":"address","indexed":true,"internalType":"address"},{"name":"userToken","type":"address","indexed":true,"internalType":"address"},{"name":"validatorToken","type":"address","indexed":true,"internalType":"address"},{"name":"amountUserToken","type":"uint256","indexed":false,"internalType":"uint256"},{"name":"amountValidatorToken","type":"uint256","indexed":false,"internalType":"uint256"},{"name":"liquidity","type":"uint256","indexed":false,"internalType":"uint256"}],"anonymous":false},{"type":"event","name":"RebalanceSwap","inputs":[{"name":"userToken","type":"address","indexed":true,"internalType":"address"},{"name":"validatorToken","type":"address","indexed":true,"internalType":"address"},{"name":"swapper","type":"address","indexed":true,"internalType":"address"},{"name":"amountIn","type":"uint256","indexed":false,"internalType":"uint256"},{"name":"amountOut","type":"uint256","indexed":false,"internalType":"uint256"}],"anonymous":false},{"type":"event","name":"UserTokenSet","inputs":[{"name":"user","type":"address","indexed":true,"internalType":"address"},{"name":"token","type":"address","indexed":true,"internalType":"address"}],"anonymous":false},{"type":"event","name":"ValidatorTokenSet","inputs":[{"name":"validator","type":"address","indexed":true,"internalType":"address"},{"name":"token","type":"address","indexed":true,"internalType":"address"}],"anonymous":false}],"bytecode":{"object":"0x6080604052348015600e575f5ffd5b50611d818061001c5f395ff3fe608060405234801561000f575f5ffd5b506004361061011c575f3560e01c8063b306cc70116100a9578063e78974441161006e578063e7897444146102cd578063eced5526146102e0578063ed498fa8146102e9578063fa28d69214610311578063fa291e5314610324575f5ffd5b8063b306cc7014610237578063b5217bb41461023f578063b524abcf14610292578063b60d2ddb146102b1578063c9e525df146102c4575f5ffd5b8063531aa03e116100ef578063531aa03e1461018c57806365bcd1f8146101c6578063693f917e146101f15780636dc54a7a146101fa5780637e9fe1c514610222575f5ffd5b80631bd94ac71461012057806321b77d63146101465780632ef61c211461014f5780634fb5bf7f14610162575b5f5ffd5b61013361012e3660046118cb565b61034c565b6040519081526020015b60405180910390f35b6101336103e881565b61013361015d366004611915565b610556565b610133610170366004611946565b600360209081525f928352604080842090915290825290205481565b61019f61019a366004611915565b6105a0565b6040805182516001600160801b03908116825260209384015116928101929092520161013d565b6101d96101d4366004611967565b6105f8565b6040516001600160a01b03909116815260200161013d565b6101336126f281565b6101d96102083660046119a1565b60046020525f90815260409020546001600160a01b031681565b6102356102303660046119ba565b610773565b005b6102356108e7565b61027261024d366004611a0d565b5f602081905290815260409020546001600160801b0380821691600160801b90041682565b604080516001600160801b0393841681529290911660208301520161013d565b6101336102a0366004611a0d565b60026020525f908152604090205481565b6102356102bf3660046119a1565b610b44565b61013361270181565b6102356102db3660046119a1565b610cf9565b61013361271081565b6101d96102f73660046119a1565b60056020525f90815260409020546001600160a01b031681565b61013361031f366004611a24565b610e5f565b6103376103323660046118cb565b611274565b6040805192835260208301919091520161013d565b5f5f6103588686610556565b905061271061036961270186611a7f565b6103739190611a96565b61037e906001611ab5565b5f828152602081905260409020805491935090839082906010906103b3908490600160801b90046001600160801b0316611ac8565b92506101000a8154816001600160801b0302191690836001600160801b0316021790555084815f015f8282829054906101000a90046001600160801b03166103fb9190611ae7565b92506101000a8154816001600160801b0302191690836001600160801b03160217905550856001600160a01b031663fbd6948f3330866040518463ffffffff1660e01b815260040161044f93929190611b06565b6020604051808303815f875af115801561046b573d5f5f3e3d5ffd5b505050506040513d601f19601f8201168201806040525081019061048f9190611b2a565b5060405163a9059cbb60e01b81526001600160a01b0385811660048301526024820187905288169063a9059cbb906044016020604051808303815f875af11580156104dc573d5f5f3e3d5ffd5b505050506040513d601f19601f820116820180604052508101906105009190611b2a565b50604080518481526020810187905233916001600160a01b0389811692908b16917f1e9bc167ac8bc86f20f6d5c4c24338e554a9ae0f92faa67d1e2f59fe4a89c97f910160405180910390a45050949350505050565b6040516bffffffffffffffffffffffff19606084811b8216602084015283901b1660348201525f906048016040516020818303038152906040528051906020012090505b92915050565b604080518082019091525f80825260208201525f6105be8484610556565b5f90815260208181526040918290208251808401909352546001600160801b038082168452600160801b9091041690820152949350505050565b5f33156106205760405162461bcd60e51b815260040161061790611b49565b60405180910390fd5b415f908152600460205260409020546001600160a01b03168061067f5760405162461bcd60e51b81526020600482015260176024820152761590531251105513d497d513d2d15397d393d517d4d155604a1b6044820152606401610617565b6001600160a01b038086165f90815260056020526040902054169150816106ba576106a984611519565b156106b6578391506106ba565b8091505b806001600160a01b0316826001600160a01b0316146106fa576106de82828561153a565b6106fa5760405162461bcd60e51b815260040161061790611b70565b60405163fbd6948f60e01b81526001600160a01b0383169063fbd6948f9061072a90889030908890600401611b06565b6020604051808303815f875af1158015610746573d5f5f3e3d5ffd5b505050506040513d601f19601f8201168201806040525081019061076a9190611b2a565b50509392505050565b33156107915760405162461bcd60e51b815260040161061790611b49565b5f61079c8486611bb3565b905080156108165760405163a9059cbb60e01b81526001600160a01b0387811660048301526024820183905284169063a9059cbb906044016020604051808303815f875af11580156107f0573d5f5f3e3d5ffd5b505050506040513d601f19601f820116820180604052508101906108149190611b2a565b505b61082183838661157c565b5083156108df57816001600160a01b0316836001600160a01b03160361085d578360065f8282546108529190611ab5565b909155506108df9050565b6001600160a01b0383165f9081526008602052604090205460ff166108df576007805460018082019092557fa66cc928b5edb82af9bd49922954155ab7b0942694bea4ce44661d9a8736c6880180546001600160a01b0319166001600160a01b0386169081179091555f908152600860205260409020805460ff191690911790555b505050505050565b33156109055760405162461bcd60e51b815260040161061790611b49565b415f908152600460205260409020546001600160a01b0316806109645760405162461bcd60e51b81526020600482015260176024820152761590531251105513d497d513d2d15397d393d517d4d155604a1b6044820152606401610617565b5f5b600754811015610ab5575f6007828154811061098457610984611bc6565b5f918252602090912001546001600160a01b03908116915083168114610a615760405163298d501f60e11b81526001600160a01b038083166004830152841660248201525f90309063531aa03e906044016040805180830381865afa1580156109ef573d5f5f3e3d5ffd5b505050506040513d601f19601f82011682018060405250810190610a139190611c35565b80519091506001600160801b0316151580610a3a57505f81602001516001600160801b0316115b15610a5f57610a498285611622565b60065f828254610a599190611ab5565b90915550505b505b6001600160a01b0381165f908152600860205260409020805460ff191690556007805483908110610a9457610a94611bc6565b5f91825260209091200180546001600160a01b031916905550600101610966565b50610ac160075f611882565b60065415610b415760065460405163a9059cbb60e01b815241600482015260248101919091526001600160a01b0382169063a9059cbb906044016020604051808303815f875af1158015610b17573d5f5f3e3d5ffd5b505050506040513d601f19601f82011682018060405250810190610b3b9190611b2a565b505f6006555b50565b333214610b865760405162461bcd60e51b815260206004820152601060248201526f13d3931657d112549150d517d0d0531360821b6044820152606401610617565b413303610bd55760405162461bcd60e51b815260206004820152601a60248201527f43414e4e4f545f4348414e47455f57495448494e5f424c4f434b0000000000006044820152606401610617565b610bde81611519565b610bfa5760405162461bcd60e51b815260040161061790611c90565b604051806040016040528060038152602001621554d160ea1b81525080519060200120816001600160a01b031663e5a6b10f6040518163ffffffff1660e01b81526004015f60405180830381865afa158015610c58573d5f5f3e3d5ffd5b505050506040513d5f823e601f3d908101601f19168201604052610c7f9190810190611cb7565b8051906020012014610ca35760405162461bcd60e51b815260040161061790611c90565b335f8181526004602052604080822080546001600160a01b0319166001600160a01b03861690811790915590519092917f6eb51f8f7e857fb2caf4257da4219a86adeed7128412764e41334968165f5f0c91a350565b333214610d3b5760405162461bcd60e51b815260206004820152601060248201526f13d3931657d112549150d517d0d0531360821b6044820152606401610617565b610d4481611519565b610d605760405162461bcd60e51b815260040161061790611c90565b604051806040016040528060038152602001621554d160ea1b81525080519060200120816001600160a01b031663e5a6b10f6040518163ffffffff1660e01b81526004015f60405180830381865afa158015610dbe573d5f5f3e3d5ffd5b505050506040513d5f823e601f3d908101601f19168201604052610de59190810190611cb7565b8051906020012014610e095760405162461bcd60e51b815260040161061790611c90565b335f8181526005602052604080822080546001600160a01b0319166001600160a01b03861690811790915590519092917fabc7758d4ca817ce0d125eb731121a1304c36077b791253be835b9547236885691a350565b5f5f610e6b8787610556565b5f81815260208181526040808320600290925290912054815492935090916001600160801b0316158015610eae57508154600160801b90046001600160801b0316155b15610f6b576103e86002610ec2888a611ab5565b610ecc9190611a96565b11610f195760405162461bcd60e51b815260206004820152601d60248201527f494e53554646494349454e545f4c49515549444954595f4d494e5445440000006044820152606401610617565b6103e86002610f28888a611ab5565b610f329190611a96565b610f3c9190611bb3565b93506103e860025f8581526020019081526020015f205f828254610f609190611ab5565b909155506110009050565b81545f906001600160801b0316610f83575f19610fa2565b82546001600160801b0316610f98838a611a7f565b610fa29190611a96565b83549091505f90600160801b90046001600160801b0316610fc4575f19610fea565b8354600160801b90046001600160801b0316610fe0848a611a7f565b610fea9190611a96565b9050808210610ff95780610ffb565b815b955050505b5f841161104f5760405162461bcd60e51b815260206004820152601d60248201527f494e53554646494349454e545f4c49515549444954595f4d494e5445440000006044820152606401610617565b60405163fbd6948f60e01b81526001600160a01b038a169063fbd6948f9061107f90339030908c90600401611b06565b6020604051808303815f875af115801561109b573d5f5f3e3d5ffd5b505050506040513d601f19601f820116820180604052508101906110bf9190611b2a565b5060405163fbd6948f60e01b81526001600160a01b0389169063fbd6948f906110f090339030908b90600401611b06565b6020604051808303815f875af115801561110c573d5f5f3e3d5ffd5b505050506040513d601f19601f820116820180604052508101906111309190611b2a565b508154879083905f9061114d9084906001600160801b0316611ac8565b92506101000a8154816001600160801b0302191690836001600160801b0316021790555085825f0160108282829054906101000a90046001600160801b03166111969190611ac8565b92506101000a8154816001600160801b0302191690836001600160801b031602179055508360025f8581526020019081526020015f205f8282546111da9190611ab5565b90915550505f8381526003602090815260408083206001600160a01b038916845290915281208054869290611210908490611ab5565b909155505060408051888152602081018890529081018590526001600160a01b03808a1691908b169033907feca801b067fae3d181506c21fb55d44a644d16cdb863595643131a7e105b5f019060600160405180910390a450505095945050505050565b5f5f5f6112818787610556565b5f818152602081815260408083206003835281842033855290925290912054919250908611156112ec5760405162461bcd60e51b8152602060048201526016602482015275494e53554646494349454e545f4c495155494449545960501b6044820152606401610617565b6112f7818388611741565b5f848152600360209081526040808320338452909152812080549397509195508892611324908490611bb3565b90915550505f8281526002602052604081208054889290611346908490611bb3565b90915550508054849082905f906113679084906001600160801b0316611ae7565b92506101000a8154816001600160801b0302191690836001600160801b0316021790555082815f0160108282829054906101000a90046001600160801b03166113b09190611ae7565b82546001600160801b039182166101009390930a92830291909202199091161790555060405163a9059cbb60e01b81526001600160a01b0386811660048301526024820186905289169063a9059cbb906044016020604051808303815f875af115801561141f573d5f5f3e3d5ffd5b505050506040513d601f19601f820116820180604052508101906114439190611b2a565b5060405163a9059cbb60e01b81526001600160a01b0386811660048301526024820185905288169063a9059cbb906044016020604051808303815f875af1158015611490573d5f5f3e3d5ffd5b505050506040513d601f19601f820116820180604052508101906114b49190611b2a565b5060408051858152602081018590528082018890526001600160a01b0387811660608301529151898316928b169133917fa1306df62797fd30333308e15e2db0aed324580be7f22c124614a44310ec7fcc9181900360800190a4505094509492505050565b60601b71ffffffffffffffffffffffffffffffffffff1916608360f61b1490565b5f5f6115468585610556565b90505f6127106115586126f286611a7f565b6115629190611a96565b90505f61156e8361181b565b909111159695505050505050565b5f61158884848461153a565b6115a45760405162461bcd60e51b815260040161061790611b70565b5f6115af8585610556565b5f818152600160205260408120805492935085929091906115da9084906001600160801b0316611ac8565b92506101000a8154816001600160801b0302191690836001600160801b031602179055506127106126f28461160f9190611a7f565b6116199190611a96565b95945050505050565b5f5f61162e8484610556565b5f81815260208181526040808320600190925290912054919250906001600160801b03166127106116616126f283611a7f565b61166b9190611a96565b82549094506116849082906001600160801b0316611ab5565b82546001600160801b0319166001600160801b03918216178084556116b2918691600160801b900416611bb3565b82546001600160801b03918216600160801b0291161782555f838152600160205260409081902080546001600160801b0319169055516001600160a01b0380871691908816907ffb8118f81f8ad81ba2e9d74f58b9466f6c3e4b0647d87141726857c82beb1d53906117309085908990918252602082015260400190565b60405180910390a350505092915050565b5f8281526002602052604081205484548291908190611769906001600160801b031686611a7f565b6117739190611a96565b8654909350819061179490600160801b90046001600160801b031686611a7f565b61179e9190611a96565b91505f6117aa8661181b565b9050808311156118115760405162461bcd60e51b815260206004820152602c60248201527f5749544844524157414c5f455843454544535f415641494c41424c455f56414c60448201526b24a220aa27a92faa27a5a2a760a11b6064820152608401610617565b5050935093915050565b5f81815260016020526040812054819061271090611845906126f2906001600160801b0316611a7f565b61184f9190611a96565b5f8481526020819052604090205490915061187b908290600160801b90046001600160801b0316611bb3565b9392505050565b5080545f8255905f5260205f2090810190610b4191905b808211156118ac575f8155600101611899565b5090565b80356001600160a01b03811681146118c6575f5ffd5b919050565b5f5f5f5f608085870312156118de575f5ffd5b6118e7856118b0565b93506118f5602086016118b0565b92506040850135915061190a606086016118b0565b905092959194509250565b5f5f60408385031215611926575f5ffd5b61192f836118b0565b915061193d602084016118b0565b90509250929050565b5f5f60408385031215611957575f5ffd5b8235915061193d602084016118b0565b5f5f5f60608486031215611979575f5ffd5b611982846118b0565b9250611990602085016118b0565b929592945050506040919091013590565b5f602082840312156119b1575f5ffd5b61187b826118b0565b5f5f5f5f5f60a086880312156119ce575f5ffd5b6119d7866118b0565b945060208601359350604086013592506119f3606087016118b0565b9150611a01608087016118b0565b90509295509295909350565b5f60208284031215611a1d575f5ffd5b5035919050565b5f5f5f5f5f60a08688031215611a38575f5ffd5b611a41866118b0565b9450611a4f602087016118b0565b93506040860135925060608601359150611a01608087016118b0565b634e487b7160e01b5f52601160045260245ffd5b808202811582820484141761059a5761059a611a6b565b5f82611ab057634e487b7160e01b5f52601260045260245ffd5b500490565b8082018082111561059a5761059a611a6b565b6001600160801b03818116838216019081111561059a5761059a611a6b565b6001600160801b03828116828216039081111561059a5761059a611a6b565b6001600160a01b039384168152919092166020820152604081019190915260600190565b5f60208284031215611b3a575f5ffd5b8151801515811461187b575f5ffd5b6020808252600d908201526c13d3931657d41493d513d0d3d3609a1b604082015260600190565b60208082526023908201527f494e53554646494349454e545f4c49515549444954595f464f525f4645455f5360408201526205741560ec1b606082015260800190565b8181038181111561059a5761059a611a6b565b634e487b7160e01b5f52603260045260245ffd5b634e487b7160e01b5f52604160045260245ffd5b604051601f8201601f1916810167ffffffffffffffff81118282101715611c1757611c17611bda565b604052919050565b80516001600160801b03811681146118c6575f5ffd5b5f6040828403128015611c46575f5ffd5b506040805190810167ffffffffffffffff81118282101715611c6a57611c6a611bda565b604052611c7683611c1f565b8152611c8460208401611c1f565b60208201529392505050565b6020808252600d908201526c24a72b20a624a22faa27a5a2a760991b604082015260600190565b5f60208284031215611cc7575f5ffd5b815167ffffffffffffffff811115611cdd575f5ffd5b8201601f81018413611ced575f5ffd5b805167ffffffffffffffff811115611d0757611d07611bda565b611d1a601f8201601f1916602001611bee565b818152856020838501011115611d2e575f5ffd5b8160208401602083015e5f9181016020019190915294935050505056fea2646970667358221220e42690fe6289ec5dd2a2805c2baabbee797be5ef9f6127d3cf9db71a628382fa64736f6c634300081e0033","linkReferences":{}},"methodIdentifiers":{"M()":"693f917e","MIN_LIQUIDITY()":"21b77d63","N()":"c9e525df","SCALE()":"eced5526","burn(address,address,uint256,address)":"fa291e53","collectFeePostTx(address,uint256,uint256,address,address)":"7e9fe1c5","collectFeePreTx(address,address,uint256)":"65bcd1f8","executeBlock()":"b306cc70","getPool(address,address)":"531aa03e","getPoolId(address,address)":"2ef61c21","liquidityBalances(bytes32,address)":"4fb5bf7f","mint(address,address,uint256,uint256,address)":"fa28d692","pools(bytes32)":"b5217bb4","rebalanceSwap(address,address,uint256,address)":"1bd94ac7","setUserToken(address)":"e7897444","setValidatorToken(address)":"b60d2ddb","totalSupply(bytes32)":"b524abcf","userTokens(address)":"ed498fa8","validatorTokens(address)":"6dc54a7a"},"id":20}