{"abi":[{"type":"constructor","inputs":[],"stateMutability":"nonpayable"},{"type":"function","name":"getCurrencyDecimals","inputs":[{"name":"currency","type":"string","internalType":"string"}],"outputs":[{"name":"","type":"uint8","internalType":"uint8"}],"stateMutability":"view"},{"type":"function","name":"setCurrencyDecimals","inputs":[{"name":"currency","type":"string","internalType":"string"},{"name":"decimals","type":"uint8","internalType":"uint8"}],"outputs":[],"stateMutability":"nonpayable"}],"bytecode":{"object":"0x6080604052348015600e575f5ffd5b5060025f604051602790621554d160ea1b815260030190565b90815260408051602092819003929092018220805460ff1990811660ff959095169490941790556222aaa960e91b82525f60038084018290528251602394819003850181208054871660021790556242544360e81b8152808201839052835190819003850181208054871660081790556208aa8960eb1b8152908101829052915191829003909201902080549092166012179091556102109081906100cb90395ff3fe608060405234801561000f575f5ffd5b5060043610610034575f3560e01c806387f5d28f146100385780638d2631871461004d575b5f5ffd5b61004b610046366004610134565b610076565b005b61006061005b36600461018c565b6100b0565b60405160ff909116815260200160405180910390f35b805f84846040516100889291906101cb565b908152604051908190036020019020805460ff9290921660ff19909216919091179055505050565b5f5f5f84846040516100c39291906101cb565b9081526040519081900360200190205460ff16905080156100e457806100e7565b60125b949350505050565b5f5f83601f8401126100ff575f5ffd5b50813567ffffffffffffffff811115610116575f5ffd5b60208301915083602082850101111561012d575f5ffd5b9250929050565b5f5f5f60408486031215610146575f5ffd5b833567ffffffffffffffff81111561015c575f5ffd5b610168868287016100ef565b909450925050602084013560ff81168114610181575f5ffd5b809150509250925092565b5f5f6020838503121561019d575f5ffd5b823567ffffffffffffffff8111156101b3575f5ffd5b6101bf858286016100ef565b90969095509350505050565b818382375f910190815291905056fea2646970667358221220d8f1cc7df1acf6bdf7d5d9829dd019c2649e384c24976bdcc76e5108c74837df64736f6c634300081e0033","linkReferences":{}},"methodIdentifiers":{"getCurrencyDecimals(string)":"8d263187","setCurrencyDecimals(string,uint8)":"87f5d28f"},"id":35}