{"abi":[{"type":"constructor","inputs":[{"name":"_name","type":"string","internalType":"string"},{"name":"_symbol","type":"string","internalType":"string"},{"name":"_currency","type":"string","internalType":"string"},{"name":"_linkingToken","type":"address","internalType":"contract TIP20"},{"name":"admin","type":"address","internalType":"address"},{"name":"_factory","type":"address","internalType":"address"}],"stateMutability":"nonpayable"},{"type":"function","name":"BURN_BLOCKED_ROLE","inputs":[],"outputs":[{"name":"","type":"bytes32","internalType":"bytes32"}],"stateMutability":"view"},{"type":"function","name":"DOMAIN_SEPARATOR","inputs":[],"outputs":[{"name":"","type":"bytes32","internalType":"bytes32"}],"stateMutability":"view"},{"type":"function","name":"ISSUER_ROLE","inputs":[],"outputs":[{"name":"","type":"bytes32","internalType":"bytes32"}],"stateMutability":"view"},{"type":"function","name":"PAUSE_ROLE","inputs":[],"outputs":[{"name":"","type":"bytes32","internalType":"bytes32"}],"stateMutability":"view"},{"type":"function","name":"UNPAUSE_ROLE","inputs":[],"outputs":[{"name":"","type":"bytes32","internalType":"bytes32"}],"stateMutability":"view"},{"type":"function","name":"allowance","inputs":[{"name":"","type":"address","internalType":"address"},{"name":"","type":"address","internalType":"address"}],"outputs":[{"name":"","type":"uint256","internalType":"uint256"}],"stateMutability":"view"},{"type":"function","name":"approve","inputs":[{"name":"spender","type":"address","internalType":"address"},{"name":"amount","type":"uint256","internalType":"uint256"}],"outputs":[{"name":"","type":"bool","internalType":"bool"}],"stateMutability":"nonpayable"},{"type":"function","name":"balanceOf","inputs":[{"name":"","type":"address","internalType":"address"}],"outputs":[{"name":"","type":"uint256","internalType":"uint256"}],"stateMutability":"view"},{"type":"function","name":"burn","inputs":[{"name":"amount","type":"uint256","internalType":"uint256"}],"outputs":[],"stateMutability":"nonpayable"},{"type":"function","name":"burnBlocked","inputs":[{"name":"from","type":"address","internalType":"address"},{"name":"amount","type":"uint256","internalType":"uint256"}],"outputs":[],"stateMutability":"nonpayable"},{"type":"function","name":"burnWithMemo","inputs":[{"name":"amount","type":"uint256","internalType":"uint256"},{"name":"memo","type":"bytes32","internalType":"bytes32"}],"outputs":[],"stateMutability":"nonpayable"},{"type":"function","name":"changeTransferPolicyId","inputs":[{"name":"newPolicyId","type":"uint64","internalType":"uint64"}],"outputs":[],"stateMutability":"nonpayable"},{"type":"function","name":"completeLinkingTokenUpdate","inputs":[],"outputs":[],"stateMutability":"nonpayable"},{"type":"function","name":"currency","inputs":[],"outputs":[{"name":"","type":"string","internalType":"string"}],"stateMutability":"view"},{"type":"function","name":"decimals","inputs":[],"outputs":[{"name":"","type":"uint8","internalType":"uint8"}],"stateMutability":"view"},{"type":"function","name":"depth","inputs":[],"outputs":[{"name":"","type":"uint32","internalType":"uint32"}],"stateMutability":"view"},{"type":"function","name":"factory","inputs":[],"outputs":[{"name":"","type":"address","internalType":"address"}],"stateMutability":"view"},{"type":"function","name":"grantRole","inputs":[{"name":"role","type":"bytes32","internalType":"bytes32"},{"name":"account","type":"address","internalType":"address"}],"outputs":[],"stateMutability":"nonpayable"},{"type":"function","name":"linkingToken","inputs":[],"outputs":[{"name":"","type":"address","internalType":"contract TIP20"}],"stateMutability":"view"},{"type":"function","name":"mint","inputs":[{"name":"to","type":"address","internalType":"address"},{"name":"amount","type":"uint256","internalType":"uint256"}],"outputs":[],"stateMutability":"nonpayable"},{"type":"function","name":"mintWithMemo","inputs":[{"name":"to","type":"address","internalType":"address"},{"name":"amount","type":"uint256","internalType":"uint256"},{"name":"memo","type":"bytes32","internalType":"bytes32"}],"outputs":[],"stateMutability":"nonpayable"},{"type":"function","name":"name","inputs":[],"outputs":[{"name":"","type":"string","internalType":"string"}],"stateMutability":"view"},{"type":"function","name":"nextLinkingToken","inputs":[],"outputs":[{"name":"","type":"address","internalType":"contract TIP20"}],"stateMutability":"view"},{"type":"function","name":"nonces","inputs":[{"name":"","type":"address","internalType":"address"}],"outputs":[{"name":"","type":"uint256","internalType":"uint256"}],"stateMutability":"view"},{"type":"function","name":"pause","inputs":[],"outputs":[],"stateMutability":"nonpayable"},{"type":"function","name":"paused","inputs":[],"outputs":[{"name":"","type":"bool","internalType":"bool"}],"stateMutability":"view"},{"type":"function","name":"permit","inputs":[{"name":"owner","type":"address","internalType":"address"},{"name":"spender","type":"address","internalType":"address"},{"name":"value","type":"uint256","internalType":"uint256"},{"name":"deadline","type":"uint256","internalType":"uint256"},{"name":"v","type":"uint8","internalType":"uint8"},{"name":"r","type":"bytes32","internalType":"bytes32"},{"name":"s","type":"bytes32","internalType":"bytes32"}],"outputs":[],"stateMutability":"nonpayable"},{"type":"function","name":"renounceRole","inputs":[{"name":"role","type":"bytes32","internalType":"bytes32"}],"outputs":[],"stateMutability":"nonpayable"},{"type":"function","name":"revokeRole","inputs":[{"name":"role","type":"bytes32","internalType":"bytes32"},{"name":"account","type":"address","internalType":"address"}],"outputs":[],"stateMutability":"nonpayable"},{"type":"function","name":"setNextLinkingToken","inputs":[{"name":"newLinkingToken","type":"address","internalType":"contract TIP20"}],"outputs":[],"stateMutability":"nonpayable"},{"type":"function","name":"setRoleAdmin","inputs":[{"name":"role","type":"bytes32","internalType":"bytes32"},{"name":"adminRole","type":"bytes32","internalType":"bytes32"}],"outputs":[],"stateMutability":"nonpayable"},{"type":"function","name":"setSupplyCap","inputs":[{"name":"newSupplyCap","type":"uint256","internalType":"uint256"}],"outputs":[],"stateMutability":"nonpayable"},{"type":"function","name":"supplyCap","inputs":[],"outputs":[{"name":"","type":"uint256","internalType":"uint256"}],"stateMutability":"view"},{"type":"function","name":"symbol","inputs":[],"outputs":[{"name":"","type":"string","internalType":"string"}],"stateMutability":"view"},{"type":"function","name":"systemTransferFrom","inputs":[{"name":"from","type":"address","internalType":"address"},{"name":"to","type":"address","internalType":"address"},{"name":"amount","type":"uint256","internalType":"uint256"}],"outputs":[{"name":"","type":"bool","internalType":"bool"}],"stateMutability":"nonpayable"},{"type":"function","name":"totalSupply","inputs":[],"outputs":[{"name":"","type":"uint256","internalType":"uint256"}],"stateMutability":"view"},{"type":"function","name":"transfer","inputs":[{"name":"to","type":"address","internalType":"address"},{"name":"amount","type":"uint256","internalType":"uint256"}],"outputs":[{"name":"","type":"bool","internalType":"bool"}],"stateMutability":"nonpayable"},{"type":"function","name":"transferFeePostTx","inputs":[{"name":"to","type":"address","internalType":"address"},{"name":"refund","type":"uint256","internalType":"uint256"},{"name":"actualUsed","type":"uint256","internalType":"uint256"}],"outputs":[],"stateMutability":"nonpayable"},{"type":"function","name":"transferFeePreTx","inputs":[{"name":"from","type":"address","internalType":"address"},{"name":"amount","type":"uint256","internalType":"uint256"}],"outputs":[],"stateMutability":"nonpayable"},{"type":"function","name":"transferFrom","inputs":[{"name":"from","type":"address","internalType":"address"},{"name":"to","type":"address","internalType":"address"},{"name":"amount","type":"uint256","internalType":"uint256"}],"outputs":[{"name":"","type":"bool","internalType":"bool"}],"stateMutability":"nonpayable"},{"type":"function","name":"transferFromWithMemo","inputs":[{"name":"from","type":"address","internalType":"address"},{"name":"to","type":"address","internalType":"address"},{"name":"amount","type":"uint256","internalType":"uint256"},{"name":"memo","type":"bytes32","internalType":"bytes32"}],"outputs":[{"name":"","type":"bool","internalType":"bool"}],"stateMutability":"nonpayable"},{"type":"function","name":"transferPolicyId","inputs":[],"outputs":[{"name":"","type":"uint64","internalType":"uint64"}],"stateMutability":"view"},{"type":"function","name":"transferWithMemo","inputs":[{"name":"to","type":"address","internalType":"address"},{"name":"amount","type":"uint256","internalType":"uint256"},{"name":"memo","type":"bytes32","internalType":"bytes32"}],"outputs":[],"stateMutability":"nonpayable"},{"type":"function","name":"unpause","inputs":[],"outputs":[],"stateMutability":"nonpayable"},{"type":"event","name":"Approval","inputs":[{"name":"owner","type":"address","indexed":true,"internalType":"address"},{"name":"spender","type":"address","indexed":true,"internalType":"address"},{"name":"amount","type":"uint256","indexed":false,"internalType":"uint256"}],"anonymous":false},{"type":"event","name":"Burn","inputs":[{"name":"from","type":"address","indexed":true,"internalType":"address"},{"name":"amount","type":"uint256","indexed":false,"internalType":"uint256"}],"anonymous":false},{"type":"event","name":"BurnBlocked","inputs":[{"name":"from","type":"address","indexed":true,"internalType":"address"},{"name":"amount","type":"uint256","indexed":false,"internalType":"uint256"}],"anonymous":false},{"type":"event","name":"LinkingTokenUpdate","inputs":[{"name":"updater","type":"address","indexed":true,"internalType":"address"},{"name":"newLinkingToken","type":"address","indexed":true,"internalType":"contract TIP20"}],"anonymous":false},{"type":"event","name":"Mint","inputs":[{"name":"to","type":"address","indexed":true,"internalType":"address"},{"name":"amount","type":"uint256","indexed":false,"internalType":"uint256"}],"anonymous":false},{"type":"event","name":"NextLinkingTokenSet","inputs":[{"name":"updater","type":"address","indexed":true,"internalType":"address"},{"name":"nextLinkingToken","type":"address","indexed":true,"internalType":"contract TIP20"}],"anonymous":false},{"type":"event","name":"PauseStateUpdate","inputs":[{"name":"updater","type":"address","indexed":true,"internalType":"address"},{"name":"isPaused","type":"bool","indexed":false,"internalType":"bool"}],"anonymous":false},{"type":"event","name":"RoleAdminUpdated","inputs":[{"name":"role","type":"bytes32","indexed":true,"internalType":"bytes32"},{"name":"newAdminRole","type":"bytes32","indexed":true,"internalType":"bytes32"},{"name":"sender","type":"address","indexed":true,"internalType":"address"}],"anonymous":false},{"type":"event","name":"RoleMembershipUpdated","inputs":[{"name":"role","type":"bytes32","indexed":true,"internalType":"bytes32"},{"name":"account","type":"address","indexed":true,"internalType":"address"},{"name":"sender","type":"address","indexed":true,"internalType":"address"},{"name":"hasRole","type":"bool","indexed":false,"internalType":"bool"}],"anonymous":false},{"type":"event","name":"SupplyCapUpdate","inputs":[{"name":"updater","type":"address","indexed":true,"internalType":"address"},{"name":"newSupplyCap","type":"uint256","indexed":true,"internalType":"uint256"}],"anonymous":false},{"type":"event","name":"Transfer","inputs":[{"name":"from","type":"address","indexed":true,"internalType":"address"},{"name":"to","type":"address","indexed":true,"internalType":"address"},{"name":"amount","type":"uint256","indexed":false,"internalType":"uint256"}],"anonymous":false},{"type":"event","name":"TransferPolicyUpdate","inputs":[{"name":"updater","type":"address","indexed":true,"internalType":"address"},{"name":"newPolicyId","type":"uint64","indexed":true,"internalType":"uint64"}],"anonymous":false},{"type":"event","name":"TransferWithMemo","inputs":[{"name":"from","type":"address","indexed":true,"internalType":"address"},{"name":"to","type":"address","indexed":true,"internalType":"address"},{"name":"amount","type":"uint256","indexed":false,"internalType":"uint256"},{"name":"memo","type":"bytes32","indexed":true,"internalType":"bytes32"}],"anonymous":false},{"type":"error","name":"ContractPaused","inputs":[]},{"type":"error","name":"Expired","inputs":[]},{"type":"error","name":"InsufficientAllowance","inputs":[]},{"type":"error","name":"InsufficientBalance","inputs":[]},{"type":"error","name":"InvalidCurrency","inputs":[]},{"type":"error","name":"InvalidLinkingToken","inputs":[]},{"type":"error","name":"InvalidRecipient","inputs":[]},{"type":"error","name":"InvalidSignature","inputs":[]},{"type":"error","name":"PolicyForbids","inputs":[]},{"type":"error","name":"SupplyCapExceeded","inputs":[]},{"type":"error","name":"Unauthorized","inputs":[]}],"bytecode":{"object":"0x60c060405260068054600160a01b600160e01b031916600160a01b179055600b805460ff191690555f19600c55348015610037575f5ffd5b50604051612c09380380612c09833981016040819052610056916102ff565b5f195f81905260016020527fc39d774f18115b85b81494d65e588b565d73abc969333d1da7b0a0eb0729accd55600261008f878261044c565b50600361009c868261044c565b5060046100a9858261044c565b50600580546001600160a01b03199081166001600160a01b038681169182179093556006805490921617905581166080526100e26101dc565b60ff165f0361010457604051631eb3268560e31b815260040160405180910390fd5b6001600160a01b0382165f90815260208181526040808320838052825291829020805460ff1916600190811790915588518983012083518085018552918252603160f81b9183019190915282517f8b73c3c69bb8fe3d512ecc4cf759cc79239f7b179b0ffacaa9a75d522b39400f92810192909252918101919091527fc89efdaa54c0f20c7adf612882df0950f5a951637e0307cdcb4c672f298b8bc660608201524660808201523060a082015260c00160408051601f19818403018152919052805160209091012060a052506105b4945050505050565b604051638d26318760e01b81525f906201085f608e1b90638d26318790610207906004908101610506565b602060405180830381865afa158015610222573d5f5f3e3d5ffd5b505050506040513d601f19601f82011682018060405250810190610246919061058d565b905090565b634e487b7160e01b5f52604160045260245ffd5b5f82601f83011261026e575f5ffd5b81516001600160401b038111156102875761028761024b565b604051601f8201601f19908116603f011681016001600160401b03811182821017156102b5576102b561024b565b6040528181528382016020018510156102cc575f5ffd5b8160208501602083015e5f918101602001919091529392505050565b6001600160a01b03811681146102fc575f5ffd5b50565b5f5f5f5f5f5f60c08789031215610314575f5ffd5b86516001600160401b03811115610329575f5ffd5b61033589828a0161025f565b602089015190975090506001600160401b03811115610352575f5ffd5b61035e89828a0161025f565b604089015190965090506001600160401b0381111561037b575f5ffd5b61038789828a0161025f565b9450506060870151610398816102e8565b60808801519093506103a9816102e8565b60a08801519092506103ba816102e8565b809150509295509295509295565b600181811c908216806103dc57607f821691505b6020821081036103fa57634e487b7160e01b5f52602260045260245ffd5b50919050565b601f82111561044757805f5260205f20601f840160051c810160208510156104255750805b601f840160051c820191505b81811015610444575f8155600101610431565b50505b505050565b81516001600160401b038111156104655761046561024b565b6104798161047384546103c8565b84610400565b6020601f8211600181146104ab575f83156104945750848201515b5f19600385901b1c1916600184901b178455610444565b5f84815260208120601f198516915b828110156104da57878501518255602094850194600190920191016104ba565b50848210156104f757868401515f19600387901b60f8161c191681555b50505050600190811b01905550565b602081525f5f8354610517816103c8565b806020860152600182165f8114610535576001811461055157610582565b60ff1983166040870152604082151560051b8701019350610582565b865f5260205f205f5b838110156105795781548882016040015260019091019060200161055a565b87016040019450505b509195945050505050565b5f6020828403121561059d575f5ffd5b815160ff811681146105ad575f5ffd5b9392505050565b60805160a0516126266105e35f395f818161038a01526119df01525f81816105a3015261101301526126265ff3fe608060405234801561000f575f5ffd5b506004361061026b575f3560e01c80637eabdc461161014b578063a9059cbb116100bf578063dd62ed3e11610084578063dd62ed3e146105eb578063e44f0b1214610615578063e5a6b10f14610628578063ec0cf3dc14610630578063fbd6948f14610643578063fd5e942014610656575f5ffd5b8063a9059cbb14610578578063b6a3f59a1461058b578063c45a01551461059e578063d505accf146105c5578063d547741f146105d8575f5ffd5b80638f770ad0116101105780638f770ad0146104fc578063929c25391461050557806395777d591461051857806395d89b411461052b5780639c4bad2914610533578063a7d6909914610565575f5ffd5b80637eabdc461461049b5780637ecebe00146104ae57806382aefa24146104cd5780638456cb59146104e15780638bb9c5bf146104e9575f5ffd5b80633644e515116101e257806342966c68116101a757806342966c68146104015780635c975abb14610414578063631c56ef1461042157806370a082311461043e578063728e03091461045d5780637757c6cf14610488575f5ffd5b80633644e51514610385578063389ed267146103ac57806338f23b0b146103d35780633f4ba83a146103e657806340c10f19146103ee575f5ffd5b806323b872dd1161023357806323b872dd146102ef578063255f7ee5146103025780632f2ff15d1461030a578063309756fb1461031d578063313ce5671461034457806332ad9be81461035e575f5ffd5b806305dbb5e01461026f57806306fdde0314610284578063095ea7b3146102a257806318160ddd146102c55780631e4e0091146102dc575b5f5ffd5b61028261027d36600461218b565b610669565b005b61028c610702565b60405161029991906121b5565b60405180910390f35b6102b56102b036600461218b565b61078e565b6040519015158152602001610299565b6102ce60075481565b604051908152602001610299565b6102826102ea3660046121ea565b6107fa565b6102b56102fd36600461220a565b61087d565b610282610a83565b610282610318366004612248565b610bba565b6102ce7f265b220c5a8891efdd9e1b1b7fa72f257bd5169f8d87e319cf3dad6ff52b94ae81565b61034c610c67565b60405160ff9091168152602001610299565b6102ce7f7408fdc0d31c7bcb349eab611f5d1168acd4303574993f8cdc98b1cd18c41cae81565b6102ce7f000000000000000000000000000000000000000000000000000000000000000081565b6102ce7f139c2898040ef16910dc9f44dc697df79363da767d8bc92f2e310312b816e46d81565b6102826103e13660046121ea565b610cd6565b610282610d90565b6102826103fc36600461218b565b610e2b565b61028261040f366004612276565b610eb5565b600b546102b59060ff1681565b610429610f47565b60405163ffffffff9091168152602001610299565b6102ce61044c36600461228d565b60086020525f908152604090205481565b600654610470906001600160a01b031681565b6040516001600160a01b039091168152602001610299565b61028261049636600461228d565b610fbd565b600554610470906001600160a01b031681565b6102ce6104bc36600461228d565b600a6020525f908152604090205481565b6102ce5f5160206125b15f395f51905f5281565b6102826110e5565b6102826104f7366004612276565b61117f565b6102ce600c5481565b6102b56105133660046122af565b61120e565b6102826105263660046122f2565b611450565b61028c611615565b60065461054d90600160a01b90046001600160401b031681565b6040516001600160401b039091168152602001610299565b6102826105733660046122f2565b611622565b6102b561058636600461218b565b611707565b610282610599366004612276565b611897565b6104707f000000000000000000000000000000000000000000000000000000000000000081565b6102826105d3366004612332565b611926565b6102826105e6366004612248565b611b2e565b6102ce6105f936600461239e565b600960209081525f928352604080842090915290825290205481565b6102826106233660046122f2565b611bca565b61028c611c9d565b61028261063e36600461218b565b611caa565b6102b561065136600461220a565b611dea565b6102826106643660046123ca565b611f8b565b33613fbb60921b14610679575f5ffd5b6001600160a01b0382165f908152600860205260409020548111156106b157604051631e9acf1760e31b815260040160405180910390fd5b6001600160a01b039091165f90815260086020526040812080548390039055613fbb60921b90527ffe9f059231087294c19e08742d222f13345d2d0f1bb02bf7b0068d0dfaf7db2c80549091019055565b6002805461070f906123f0565b80601f016020809104026020016040519081016040528092919081815260200182805461073b906123f0565b80156107865780601f1061075d57610100808354040283529160200191610786565b820191905f5260205f20905b81548152906001019060200180831161076957829003601f168201915b505050505081565b335f8181526009602090815260408083206001600160a01b038716808552925280832085905551919290917f8c5be1e5ebec7d5bd14f71427d1e84f3dd0314c0f7b2291e5b200ac8c7c3b925906107e89086815260200190565b60405180910390a35060015b92915050565b5f828152600160209081526040808320543384528383528184208185529092529091205460ff1661083d576040516282b42960e81b815260040160405180910390fd5b5f83815260016020526040808220849055513391849186917f70d85637458e639f63e6106179309eadde21dacce320d9549168d49d0a9d698291a4505050565b600b545f9060ff16156108a35760405163ab35696f60e01b815260040160405180910390fd5b826001600160601b03604082901c166001605d1b036108d557604051634e46966960e11b815260040160405180910390fd5b600654604051632ad08bcf60e11b81528691869161100f60921b916355a1179e9161091591600160a01b90046001600160401b0316908690600401612428565b602060405180830381865afa158015610930573d5f5f3e3d5ffd5b505050506040513d601f19601f82011682018060405250810190610954919061244a565b15806109d85750600654604051632ad08bcf60e11b815261100f60921b916355a1179e9161099791600160a01b90046001600160401b0316908590600401612428565b602060405180830381865afa1580156109b2573d5f5f3e3d5ffd5b505050506040513d601f19601f820116820180604052508101906109d6919061244a565b155b156109f6576040516354cfe65960e01b815260040160405180910390fd5b6001600160a01b0387165f90815260096020908152604080832033845290915290205480861115610a3a576040516313be252b60e01b815260040160405180910390fd5b5f198114610a6a576001600160a01b0388165f908152600960209081526040808320338452909152902086820390555b610a7588888861201b565b506001979650505050505050565b335f9081526020818152604080832083805290915281205460ff16610aba576040516282b42960e81b815260040160405180910390fd5b6006546001600160a01b03165b608360961b6001600160a01b03821614610b6b57306001600160a01b03821603610b045760405163ba72c57d60e01b815260040160405180910390fd5b806001600160a01b0316637eabdc466040518163ffffffff1660e01b8152600401602060405180830381865afa158015610b40573d5f5f3e3d5ffd5b505050506040513d601f19601f82011682018060405250810190610b649190612469565b9050610ac7565b600654600580546001600160a01b0319166001600160a01b03909216918217905560405133907ffad7bc1b1e64c532aeef6f1f63c8224b463f608f9fc04a894ed979694e454d02905f90a35050565b5f828152600160209081526040808320543384528383528184208185529092529091205460ff16610bfd576040516282b42960e81b815260040160405180910390fd5b6001600160a01b0382165f81815260208181526040808320878452825291829020805460ff19166001908117909155915191825233929186917f4811f35680ba814bed6b0b926a2949c8a1000f4f2443cfe9978745d46a251aec91015b60405180910390a4505050565b604051638d26318760e01b81525f906201085f608e1b90638d26318790610c92906004908101612484565b602060405180830381865afa158015610cad573d5f5f3e3d5ffd5b505050506040513d601f19601f82011682018060405250810190610cd1919061252f565b905090565b335f908152602081815260408083205f5160206125b15f395f51905f5280855292529091205460ff16610d1b576040516282b42960e81b815260040160405180910390fd5b610d26335f8561201b565b60078054849003905560405183815282905f9033905f5160206125d15f395f51905f529060200160405180910390a460405183815233907fcc16f5dbb4873280815c1ee09dbd06736cffcc184412cf7a71a0fdb75d397ca5906020015b60405180910390a2505050565b335f908152602081815260408083207f265b220c5a8891efdd9e1b1b7fa72f257bd5169f8d87e319cf3dad6ff52b94ae80855292529091205460ff16610de8576040516282b42960e81b815260040160405180910390fd5b600b805460ff191690556040515f815233907ff79595a776ff71356be9e7ff196226a16d0f4d637ff39031256c0eafd7af6b5e906020015b60405180910390a250565b335f908152602081815260408083205f5160206125b15f395f51905f5280855292529091205460ff16610e70576040516282b42960e81b815260040160405180910390fd5b610e7a83836120e9565b826001600160a01b03167f0f6798a560793a54c3bcfe86a93cde1e73087d944c0ea20544137d412139688583604051610d8391815260200190565b335f908152602081815260408083205f5160206125b15f395f51905f5280855292529091205460ff16610efa576040516282b42960e81b815260040160405180910390fd5b610f05335f8461201b565b60078054839003905560405182815233907fcc16f5dbb4873280815c1ee09dbd06736cffcc184412cf7a71a0fdb75d397ca59060200160405180910390a25050565b6005546040805163631c56ef60e01b815290515f926001600160a01b03169163631c56ef9160048083019260209291908290030181865afa158015610f8e573d5f5f3e3d5ffd5b505050506040513d601f19601f82011682018060405250810190610fb2919061254a565b610cd1906001612581565b335f9081526020818152604080832083805290915281205460ff16610ff4576040516282b42960e81b815260040160405180910390fd5b6040516335ec42c960e01b81526001600160a01b0383811660048301527f000000000000000000000000000000000000000000000000000000000000000016906335ec42c990602401602060405180830381865afa158015611058573d5f5f3e3d5ffd5b505050506040513d601f19601f8201168201806040525081019061107c919061244a565b6110995760405163ba72c57d60e01b815260040160405180910390fd5b600680546001600160a01b0319166001600160a01b03841690811790915560405133907f1600762e80fa71db7c49d0560a825ff8f470d66f5441008f366e5304ae31907f905f90a35050565b335f908152602081815260408083207f139c2898040ef16910dc9f44dc697df79363da767d8bc92f2e310312b816e46d80855292529091205460ff1661113d576040516282b42960e81b815260040160405180910390fd5b600b805460ff1916600190811790915560405190815233907ff79595a776ff71356be9e7ff196226a16d0f4d637ff39031256c0eafd7af6b5e90602001610e20565b335f90815260208181526040808320848452909152902054819060ff166111b8576040516282b42960e81b815260040160405180910390fd5b335f818152602081815260408083208684528252808320805460ff1916905551918252829185917f4811f35680ba814bed6b0b926a2949c8a1000f4f2443cfe9978745d46a251aec910160405180910390a45050565b600b545f9060ff16156112345760405163ab35696f60e01b815260040160405180910390fd5b836001600160601b03604082901c166001605d1b0361126657604051634e46966960e11b815260040160405180910390fd5b600654604051632ad08bcf60e11b81528791879161100f60921b916355a1179e916112a691600160a01b90046001600160401b0316908690600401612428565b602060405180830381865afa1580156112c1573d5f5f3e3d5ffd5b505050506040513d601f19601f820116820180604052508101906112e5919061244a565b15806113695750600654604051632ad08bcf60e11b815261100f60921b916355a1179e9161132891600160a01b90046001600160401b0316908590600401612428565b602060405180830381865afa158015611343573d5f5f3e3d5ffd5b505050506040513d601f19601f82011682018060405250810190611367919061244a565b155b15611387576040516354cfe65960e01b815260040160405180910390fd5b6001600160a01b0388165f908152600960209081526040808320338452909152902054808711156113cb576040516313be252b60e01b815260040160405180910390fd5b5f1981146113fb576001600160a01b0389165f908152600960209081526040808320338452909152902087820390555b61140689898961201b565b85886001600160a01b03168a6001600160a01b03165f5160206125d15f395f51905f528a60405161143991815260200190565b60405180910390a450600198975050505050505050565b600b5460ff16156114745760405163ab35696f60e01b815260040160405180910390fd5b826001600160601b03604082901c166001605d1b036114a657604051634e46966960e11b815260040160405180910390fd5b600654604051632ad08bcf60e11b81523391869161100f60921b916355a1179e916114e691600160a01b90046001600160401b0316908690600401612428565b602060405180830381865afa158015611501573d5f5f3e3d5ffd5b505050506040513d601f19601f82011682018060405250810190611525919061244a565b15806115a95750600654604051632ad08bcf60e11b815261100f60921b916355a1179e9161156891600160a01b90046001600160401b0316908590600401612428565b602060405180830381865afa158015611583573d5f5f3e3d5ffd5b505050506040513d601f19601f820116820180604052508101906115a7919061244a565b155b156115c7576040516354cfe65960e01b815260040160405180910390fd5b6115d233878761201b565b83866001600160a01b0316336001600160a01b03165f5160206125d15f395f51905f528860405161160591815260200190565b60405180910390a4505050505050565b6003805461070f906123f0565b33613fbb60921b14611632575f5ffd5b613fbb60921b5f5260086020527ffe9f059231087294c19e08742d222f13345d2d0f1bb02bf7b0068d0dfaf7db2c548083111561168257604051631e9acf1760e31b815260040160405180910390fd5b600860209081527ffe9f059231087294c19e08742d222f13345d2d0f1bb02bf7b0068d0dfaf7db2c805485900390556001600160a01b0385165f81815260409081902080548701905551848152613fbb60921b927fddf252ad1be2c89b69c2b068fc378daa952ba7f163c4a11628f55a4df523b3ef910160405180910390a350505050565b600b545f9060ff161561172d5760405163ab35696f60e01b815260040160405180910390fd5b826001600160601b03604082901c166001605d1b0361175f57604051634e46966960e11b815260040160405180910390fd5b600654604051632ad08bcf60e11b81523391869161100f60921b916355a1179e9161179f91600160a01b90046001600160401b0316908690600401612428565b602060405180830381865afa1580156117ba573d5f5f3e3d5ffd5b505050506040513d601f19601f820116820180604052508101906117de919061244a565b15806118625750600654604051632ad08bcf60e11b815261100f60921b916355a1179e9161182191600160a01b90046001600160401b0316908590600401612428565b602060405180830381865afa15801561183c573d5f5f3e3d5ffd5b505050506040513d601f19601f82011682018060405250810190611860919061244a565b155b15611880576040516354cfe65960e01b815260040160405180910390fd5b61188b33878761201b565b50600195945050505050565b335f9081526020818152604080832083805290915281205460ff166118ce576040516282b42960e81b815260040160405180910390fd5b6007548210156118f157604051637ac7b99d60e11b815260040160405180910390fd5b600c829055604051829033907f6d7e6630766134be7e051b11b8882e6f47926ddd2fd1268bebd168c30f055c4f905f90a35050565b8342111561194757604051630407b05b60e31b815260040160405180910390fd5b6001600160a01b038781165f818152600a6020908152604080832080546001810190915581517f6e71edae12b1b97f4d1f60370fef10105fa2faae0126114a169c64845d6126c98185015280830195909552948b166060850152608084018a905260a084019490945260c08084018990528451808503909101815260e08401909452835193019290922061190160f01b6101008301527f00000000000000000000000000000000000000000000000000000000000000006101028301526101228201526101420160408051601f1981840301815282825280516020918201205f80855291840180845281905260ff88169284019290925260608301869052608083018590529092509060019060a0016020604051602081039080840390855afa158015611a76573d5f5f3e3d5ffd5b505050602060405103519050886001600160a01b0316816001600160a01b0316141580611aaa57506001600160a01b038116155b15611ac857604051638baa579f60e01b815260040160405180910390fd5b50506001600160a01b038781165f818152600960209081526040808320948b168084529482529182902089905590518881527f8c5be1e5ebec7d5bd14f71427d1e84f3dd0314c0f7b2291e5b200ac8c7c3b925910160405180910390a350505050505050565b5f828152600160209081526040808320543384528383528184208185529092529091205460ff16611b71576040516282b42960e81b815260040160405180910390fd5b6001600160a01b0382165f818152602081815260408083208784528252808320805460ff191690555191825233929186917f4811f35680ba814bed6b0b926a2949c8a1000f4f2443cfe9978745d46a251aec9101610c5a565b335f908152602081815260408083205f5160206125b15f395f51905f5280855292529091205460ff16611c0f576040516282b42960e81b815260040160405180910390fd5b611c1984846120e9565b81846001600160a01b03165f6001600160a01b03165f5160206125d15f395f51905f5286604051611c4c91815260200190565b60405180910390a4836001600160a01b03167f0f6798a560793a54c3bcfe86a93cde1e73087d944c0ea20544137d412139688584604051611c8f91815260200190565b60405180910390a250505050565b6004805461070f906123f0565b335f908152602081815260408083207f7408fdc0d31c7bcb349eab611f5d1168acd4303574993f8cdc98b1cd18c41cae80855292529091205460ff16611d02576040516282b42960e81b815260040160405180910390fd5b600654604051632ad08bcf60e11b815261100f60921b916355a1179e91611d3e91600160a01b90046001600160401b0316908790600401612428565b602060405180830381865afa158015611d59573d5f5f3e3d5ffd5b505050506040513d601f19601f82011682018060405250810190611d7d919061244a565b15611d9b576040516354cfe65960e01b815260040160405180910390fd5b611da6835f8461201b565b6007805483900390556040518281526001600160a01b038416907feff07194896bfa6254e521809f217f70dbdd9cefa6b894f5326af3ce8402c32090602001610d83565b600b545f9060ff1615611e105760405163ab35696f60e01b815260040160405180910390fd5b826001600160601b03604082901c166001605d1b03611e4257604051634e46966960e11b815260040160405180910390fd5b600654604051632ad08bcf60e11b81528691869161100f60921b916355a1179e91611e8291600160a01b90046001600160401b0316908690600401612428565b602060405180830381865afa158015611e9d573d5f5f3e3d5ffd5b505050506040513d601f19601f82011682018060405250810190611ec1919061244a565b1580611f455750600654604051632ad08bcf60e11b815261100f60921b916355a1179e91611f0491600160a01b90046001600160401b0316908590600401612428565b602060405180830381865afa158015611f1f573d5f5f3e3d5ffd5b505050506040513d601f19601f82011682018060405250810190611f43919061244a565b155b15611f63576040516354cfe65960e01b815260040160405180910390fd5b33613fbb60921b14611f73575f5ffd5b611f7e87878761201b565b5060019695505050505050565b335f9081526020818152604080832083805290915281205460ff16611fc2576040516282b42960e81b815260040160405180910390fd5b6006805467ffffffffffffffff60a01b1916600160a01b6001600160401b0385169081029190911790915560405133907fa870ab07b4f8e8e92e8876245ea0ec666bc09ccf6814a1fb6a8e6984b1932cce905f90a35050565b6001600160a01b0383165f9081526008602052604090205481111561205357604051631e9acf1760e31b815260040160405180910390fd5b6001600160a01b038084165f90815260086020526040902080548390039055821615612097576001600160a01b0382165f9081526008602052604090208054820190555b816001600160a01b0316836001600160a01b03167fddf252ad1be2c89b69c2b068fc378daa952ba7f163c4a11628f55a4df523b3ef836040516120dc91815260200190565b60405180910390a3505050565b600c54816007546120fa919061259d565b111561211957604051637ac7b99d60e11b815260040160405180910390fd5b60078054820190556001600160a01b0382165f818152600860209081526040808320805486019055518481527fddf252ad1be2c89b69c2b068fc378daa952ba7f163c4a11628f55a4df523b3ef910160405180910390a35050565b6001600160a01b0381168114612188575f5ffd5b50565b5f5f6040838503121561219c575f5ffd5b82356121a781612174565b946020939093013593505050565b602081525f82518060208401528060208501604085015e5f604082850101526040601f19601f83011684010191505092915050565b5f5f604083850312156121fb575f5ffd5b50508035926020909101359150565b5f5f5f6060848603121561221c575f5ffd5b833561222781612174565b9250602084013561223781612174565b929592945050506040919091013590565b5f5f60408385031215612259575f5ffd5b82359150602083013561226b81612174565b809150509250929050565b5f60208284031215612286575f5ffd5b5035919050565b5f6020828403121561229d575f5ffd5b81356122a881612174565b9392505050565b5f5f5f5f608085870312156122c2575f5ffd5b84356122cd81612174565b935060208501356122dd81612174565b93969395505050506040820135916060013590565b5f5f5f60608486031215612304575f5ffd5b833561230f81612174565b95602085013595506040909401359392505050565b60ff81168114612188575f5ffd5b5f5f5f5f5f5f5f60e0888a031215612348575f5ffd5b873561235381612174565b9650602088013561236381612174565b95506040880135945060608801359350608088013561238181612324565b9699959850939692959460a0840135945060c09093013592915050565b5f5f604083850312156123af575f5ffd5b82356123ba81612174565b9150602083013561226b81612174565b5f602082840312156123da575f5ffd5b81356001600160401b03811681146122a8575f5ffd5b600181811c9082168061240457607f821691505b60208210810361242257634e487b7160e01b5f52602260045260245ffd5b50919050565b6001600160401b039290921682526001600160a01b0316602082015260400190565b5f6020828403121561245a575f5ffd5b815180151581146122a8575f5ffd5b5f60208284031215612479575f5ffd5b81516122a881612174565b602081525f5f83545f8160011c905060018216806124a357607f821691505b6020821081036124c157634e487b7160e01b5f52602260045260245ffd5b60208601829052604086018180156124e057600181146124f657612522565b60ff198516825283151560051b82019550612522565b5f898152602090205f5b8581101561251c57815484820152600190910190602001612500565b83019650505b5093979650505050505050565b5f6020828403121561253f575f5ffd5b81516122a881612324565b5f6020828403121561255a575f5ffd5b815163ffffffff811681146122a8575f5ffd5b634e487b7160e01b5f52601160045260245ffd5b63ffffffff81811683821601908111156107f4576107f461256d565b808201808211156107f4576107f461256d56fe114e74f6ea3bd819998f78687bfcb11b140da08e9b7d222fa9c1f1ba1f2aa12257bc7354aa85aed339e000bccffabbc529466af35f0772c8f8ee1145927de7f0a2646970667358221220cae316f72b1d0cdbcb556fac89d83fa6999861ed776144313a3b69ef3054fbec64736f6c634300081e0033","linkReferences":{}},"methodIdentifiers":{"BURN_BLOCKED_ROLE()":"32ad9be8","DOMAIN_SEPARATOR()":"3644e515","ISSUER_ROLE()":"82aefa24","PAUSE_ROLE()":"389ed267","UNPAUSE_ROLE()":"309756fb","allowance(address,address)":"dd62ed3e","approve(address,uint256)":"095ea7b3","balanceOf(address)":"70a08231","burn(uint256)":"42966c68","burnBlocked(address,uint256)":"ec0cf3dc","burnWithMemo(uint256,bytes32)":"38f23b0b","changeTransferPolicyId(uint64)":"fd5e9420","completeLinkingTokenUpdate()":"255f7ee5","currency()":"e5a6b10f","decimals()":"313ce567","depth()":"631c56ef","factory()":"c45a0155","grantRole(bytes32,address)":"2f2ff15d","linkingToken()":"7eabdc46","mint(address,uint256)":"40c10f19","mintWithMemo(address,uint256,bytes32)":"e44f0b12","name()":"06fdde03","nextLinkingToken()":"728e0309","nonces(address)":"7ecebe00","pause()":"8456cb59","paused()":"5c975abb","permit(address,address,uint256,uint256,uint8,bytes32,bytes32)":"d505accf","renounceRole(bytes32)":"8bb9c5bf","revokeRole(bytes32,address)":"d547741f","setNextLinkingToken(address)":"7757c6cf","setRoleAdmin(bytes32,bytes32)":"1e4e0091","setSupplyCap(uint256)":"b6a3f59a","supplyCap()":"8f770ad0","symbol()":"95d89b41","systemTransferFrom(address,address,uint256)":"fbd6948f","totalSupply()":"18160ddd","transfer(address,uint256)":"a9059cbb","transferFeePostTx(address,uint256,uint256)":"a7d69099","transferFeePreTx(address,uint256)":"05dbb5e0","transferFrom(address,address,uint256)":"23b872dd","transferFromWithMemo(address,address,uint256,bytes32)":"929c2539","transferPolicyId()":"9c4bad29","transferWithMemo(address,uint256,bytes32)":"95777d59","unpause()":"3f4ba83a"},"id":25}